:020000040800F2
:1000000000500020B525000821070008230700083C
:10001000250700082707000829070008000000003E
:100020000000000000000000000000002B07000896
:100030002D070008000000002F0700083107000806
:10004000FD250008FD250008FD250008FD25000808
:10005000FD250008FD250008FD250008FD250008F8
:10006000FD250008FD250008FD250008FD250008E8
:10007000FD250008FD250008FD25000839070008BA
:10008000FD250008FD250008FD250008FD250008C8
:10009000FD250008FD250008FD250008FD250008B8
:1000A000FD250008FD250008FD250008FD250008A8
:1000B00049070008FD250008FD250008FD2500086A
:1000C000FD250008FD250008FD250008FD25000888
:1000D000FD250008FD250008FD250008FD25000878
:1000E00059070008FD250008FD2500080000000054
:1000F0000000000000000000000000000000000000
:0C01000000000000000000005FF808F1A3
:100140000348044B834202D0034B03B11847704766
:100150000C0000200C000020000000000548064BA9
:100160001B1AD90F01EBA301491002D0034B03B1B5
:10017000184770470C0000200C0000200000000011
:1001800010B5064C237843B9FFF7DAFF044B13B1DF
:100190000448AFF300800123237010BD0C00002041
:1001A000000000001426000808B5044B1BB10449E8
:1001B0000448AFF30080BDE80840CFE7000000002E
:1001C00010000020142600080000000000000000BD
:1001D000000000000000000000000000000000001F
:1001E000000000000000000000000000000000000F
:1001F00000000000000000000000000000000000FF
:1002000030B490F800F020F007016FF0000C10F00F
:10021000070491F820F040F048804FF000046FF0A0
:100220000700D1E9002391F840F000F1080082FABC
:100230004CF2A4FA8CF283FA4CF3A2FA8CF34BBB87
:10024000D1E9022382FA4CF200F10800A4FA8CF200
:1002500083FA4CF3A2FA8CF3E3B9D1E9042382FACE
:100260004CF200F10800A4FA8CF283FA4CF3A2FAE3
:100270008CF37BB9D1E9062301F1200182FA4CF21B
:1002800000F10800A4FA8CF283FA4CF3A2FA8CF382
:10029000002BC6D0002A04BF04301A4612BAB2FAA4
:1002A00082F200EBD20030BC7047D1E9002304F0A9
:1002B0000305C4F100004FEAC50514F0040F91F8DE
:1002C00040F00CFA05F562EA05021CBF63EA05037B
:1002D00062464FF00004AAE7830730B547D0541EAA
:1002E000002A3ED0CAB2034601E0013C39D303F8EC
:1002F000012B9D07F9D1032C2CD9CDB205EB052597
:100300000F2C05EB054535D9A4F1100222F00F0C96
:1003100003F1100EE6444FEA121C1A46C2E90055DA
:10032000C2E9025510327245F8D10CF1010214F005
:100330000C0F03EB021204F00F0C13D0ACF104030A
:1003400023F003030433134442F8045B9342FBD1CC
:100350000CF003042CB1C9B21C4403F8011BA342E6
:10036000FBD130BD64461346002CF4D1F9E70346B7
:100370001446C0E71A46A446E0E700BF70B50F4B2D
:100380000F4DAB42A3EB050607D0B610002455F87D
:10039000043B01349847A642F9D802F03BF9094DD5
:1003A000094B5E1BAB424FEAA60606D0002455F867
:1003B000043B01349847A642F9D870BD782600085E
:1003C00078260008782600088026000800230146C9
:1003D0001A46184600F014B838B5074D074C2C1BC8
:1003E000A41005D0013C55F8043D9847002CF9D1E4
:1003F000BDE8384002F014B98426000880260008C1
:1004000070B4164D2C681CB365681F2D23DC38B9F9
:10041000AB1C0135656044F82310002070BC7047A8
:1004200004EB850C0228CCF88820D4F888614FF0C2
:10043000010202FA05F246EA0206C4F88861CCF825
:100440000831E5D1D4F88C311343C4F88C31DFE79F
:10045000034C2C60D8E74FF0FF30DFE72800002086
:100460002C00002000B585B0002301930293039374
:100470001148124A026083600122027303754FF42F
:100480006021C1614360026100F070FC68B90D2316
:100490000193012302930023039301A9064800F06E
:1004A000E1FA28B905B05DF804FB00F099F8EEE731
:1004B00000F096F8F6E700BFBC01002000240140E0
:1004C00000B587B000230293039304930593026859
:1004D000114B9A4202D007B05DF804FB03F56C4360
:1004E0009A6942F400729A619A6902F40072009269
:1004F000009A9A6942F010029A619B6903F0100316
:100500000193019B082302930323039302A9034849
:1005100000F0FEFDDFE700BF0024014000100140B5
:1005200000B583B00A4B5A6942F001025A615B6917
:1005300003F001030193019B002211460F2000F0FC
:10054000DFFC0F2000F0ECFC03B05DF804FB00BF03
:100550000010024010B588B000240494059406945D
:1005600007941C4B9A6942F010029A619A6902F052
:1005700010020092009A9A6942F020029A619A69E8
:1005800002F020020192019A9A6942F004029A61F3
:100590009A6902F004020292029A9A6942F00802F1
:1005A0009A619B6903F008030393039B4FF4005384
:1005B0000493094B059304A9084800F0A9FD2246BD
:1005C0002146282000F09CFC282000F0A9FC08B05F
:1005D00010BD00BF001002400000111000100140CB
:1005E00072B6FEE700B595B0282200210DEB02009F
:1005F000FFF772FE00230593069307930893099370
:10060000019302930393049301220A924FF48033DF
:100610000B930E920222119212934FF4E013139354
:100620000AA800F0A9FEC8B90F230593022106917C
:10063000002307934FF480620892099305A801F004
:10064000CDF868B9022301934FF40043039301A846
:1006500001F0A0F930B915B05DF804FBFFF7C0FF59
:10066000FFF7BEFFFFF7BCFF00B587B000F0C2F98F
:10067000FFF7B8FFFFF76EFFFFF752FF00F0D6F865
:1006800000F03EF9FFF7EEFE0021104801F09AFD60
:100690000F4800F0CBFAEC460E4C0FCCACE80F0044
:1006A00094E803004CF8040B8CF800106846FFF740
:1006B000A7FD4FF47A7382B26946074801F013FF31
:1006C0004FF47A7000F0BAF9E5E700BF300200207D
:1006D000BC0100202C2600087802002082B00E4BBE
:1006E0009A6942F001029A619A6902F0010200924D
:1006F000009ADA6942F08052DA61DB6903F08053D4
:100700000193019B054A536823F0E06343F00073B3
:10071000536002B0704700BF00100240000001406B
:10072000FEE7FEE7FEE7FEE7FEE77047704770472B
:1007300008B500F071F908BD08B5024800F046FCA4
:1007400008BD00BFEC01002008B5024801F05EFAC8
:1007500008BD00BF3002002008B54FF4005000F083
:10076000E7FD08BD704700000368B3F1804F00D07B
:10077000704710B582B0044603F50433DA6942F0DD
:100780000102DA61DB6903F001030193019B124866
:10079000124B036010234360002383608022C260F9
:1007A0004FF4807202614FF4806242618361C361E1
:1007B00000F0D8FB60B9084B63625C62002211460E
:1007C0001C2000F09DFB1C2000F0AAFB02B010BD15
:1007D000FFF706FFEFE700BFEC01002058000240E2
:1007E00000B587B000230293039304930593036835
:1007F000B3F1804F02D007B05DF804FB03F504337A
:100800009A6942F004029A619B6903F00403019320
:10081000019B0123029302230393059302A902483B
:1008200000F076FCE7E700BF0008014000B58FB09C
:1008300000230A930B930C930D9308930993019350
:100840000293039304930593069307932B484FF069
:100850008042026047224260836044F61F62C260A9
:100860000361836101F0C4FA002831D14FF4805351
:100870000A930AA9214801F016FC60BB1F4801F049
:100880000FFB58BB1D4801F0DFFA50BB0023089353
:10089000099308A9194801F003FD28BB60230193BF
:1008A000002202920392059201A9144801F081FBF3
:1008B000E8B90023019304220DEB02010F4801F077
:1008C00049FBB8B90D48FFF78BFF0FB05DF804FB8B
:1008D000FFF786FECAE7FFF783FECFE7FFF780FE4C
:1008E000D0E7FFF77DFED1E7FFF77AFED6E7FFF707
:1008F00077FEDEE7FFF774FEE4E700BF300200207A
:1009000008B50A480A4B03604FF4E1334360002303
:100910008360C36003610C2242618361C36101F0A3
:10092000B2FD00B908BDFFF75BFEFBE778020020CF
:100930000044004010B586B0002302930393049353
:1009400005930268164B9A4201D006B010BD03F51C
:10095000E633DA6942F40032DA61DA6902F400322D
:100960000092009A9A6942F004029A619B6903F02E
:1009700004030193019B04230293022303930323A3
:100980000593084C02A9204600F0C2FB08230293FD
:1009900000230393049302A9204600F0B9FBD4E797
:1009A000004400400008014010B504460E4B1A7880
:1009B0004FF47A73B3FBF2F30C4A1068B0FBF3F018
:1009C00000F0BCFA68B90F2C01D901200AE000221E
:1009D00021464FF0FF3000F093FA054B1C600020D9
:1009E00000E0012010BD00BF040000200000002036
:1009F0000800002008B5074A136843F0100313608D
:100A0000032000F06BFA0020FFF7CEFFFFF766FE31
:100A1000002008BD00200240034A1168034B1B78E8
:100A20000B441360704700BFC00200200400002088
:100A3000014B1868704700BFC002002038B504465B
:100A4000FFF7F6FF0546B4F1FF3F02D0044B1B78D9
:100A50001C44FFF7EDFF401BA042FAD338BD00BF96
:100A60000400002030B482B00022019290F82420CB
:100A7000012A00F08F800346012280F824204A6872
:100A8000062A2DD80468606B02EB8202053A4FF00B
:100A90001F0C0CFA02FC20EA0C000D6805FA02F2A9
:100AA000024362630A68092A38D91C68E06802EBCD
:100AB00042021E3A4FF0070C0CFA02FC20EA0C002E
:100AC0008D6805FA02F20243E2600A68103A012AD0
:100AD00034D90020002283F8242002B030BC7047B3
:100AE0000C2A0DD80568286B02EB8202233A1F24DA
:100AF000944020EA04000C68944020432863D1E726
:100B00000568E86A02EB8202413A1F24944020EA19
:100B100004000C6894402043E862C3E71C68206925
:100B200002EB42024FF0070C0CFA02FC20EA0C0028
:100B30008D6805FA02F202432261C6E71A68164878
:100B4000824205D09A6A42F020029A620120C1E7EF
:100B5000906810F4000F1BD1906840F40000906082
:100B60000A68102A01D00020B4E70C4A12680C4928
:100B7000A1FB0212920C02EB82025200019202E0EF
:100B8000019A013A0192019A002AF9D10020A1E7C5
:100B900000209FE70220A0E7002401400000002081
:100BA00083DE1B4330B583B00023019303689A684A
:100BB00012F0010F33D104469A6842F001029A60A4
:100BC000184B1B68184AA2FB03239B0C019302E0FD
:100BD000019B013B0193019B002BF9D1FFF728FFFB
:100BE000054623689B6813F0010F16D1FFF720FF1D
:100BF000431B022BF5D923689B6813F0010FF0D13A
:100C0000A36A43F01003A362E36A43F00103E362C3
:100C1000002384F82430012002E0002000E00020BE
:100C200003B030BD0000002083DE1B4390F8243069
:100C3000012B68D010B50446012380F82430FFF75B
:100C4000B1FF00285BD1A36A23F4407323F00103B2
:100C500043F48073A36223682C4A934227D0A26A8C
:100C600022F48012A2625A6812F4806F05D0A26A40
:100C700022F4405242F48052A262A26A12F4805FCF
:100C80002BD0E26A22F00602E262002284F82420DD
:100C90006FF002021A6023689A6802F46022B2F5CB
:100CA000602F1DD09A6842F480129A602AE0A2F563
:100CB0008062526812F4702FD1D0A26A42F480127E
:100CC000A262134A526812F4806FD6D0A26A22F44C
:100CD000405242F48052A262CFE70022E262D4E79F
:100CE0000A4A934204D09A6842F4A0029A6009E04A
:100CF000A2F58062526812F4702FD3D1F3E700237B
:100D000084F8243010BD0220704700BF0028014045
:100D10000024014038B503689A6812F0010F01D130
:100D2000002038BD04469A6822F001029A60FFF75D
:100D30007FFE054623689B6813F0010F13D0FFF771
:100D400077FE431B022BF5D923689B6813F0010F34
:100D5000F0D0A36A43F01003A362E36A43F00103F7
:100D6000E3620120DDE70020DBE7000000287BD004
:100D700070B50446836A002B4DD02046FFF7CAFFAA
:100D8000A36A13F0100369D1002867D1A26A22F484
:100D9000885222F0020242F00202A2626268E16915
:100DA0000A43217B42EA4102A568B5F5807F02D063
:100DB000012D36D01D46267D012E35D0266871685E
:100DC00021F46941294371602568AE6827493140A3
:100DD0001143A960A168B1F5807F01D0012902D13A
:100DE0002369013B1B052568E96A21F470010B4367
:100DF000EB62236899681E4B0B409A4225D0A36A88
:100E000023F0120343F01003A362E36A43F00103EB
:100E1000E362012027E0C36280F82430FFF750FB33
:100E2000ABE74FF48075C6E731B9A169013945EAEE
:100E3000413141F40065C1E7A16A41F02001A1629E
:100E4000E16A41F00101E162B8E70023E362A36ACD
:100E500023F0030343F00103A36204E0A36A43F019
:100E60001003A362012070BD01207047FDF7E1FF70
:100E7000FE0E1FFF002808DB0901C9B200F1604027
:100E800000F5614080F80013704700F00F00090181
:100E9000C9B2014B1954704714ED00E000B500F0E1
:100EA0000700C0F1070CBCF1040F28BF4FF0040C81
:100EB000031D062B0FD9C31E4FF0FF3E0EFA0CF098
:100EC00021EA000199400EFA03FE22EA0E0241EAED
:100ED00002005DF804FB0023EEE70000074AD36838
:100EE00023F4E0631B041B0C000200F4E0600343E6
:100EF00043F0BF6343F40033D360704700ED00E07C
:100F000010B50446054BD868C0F30220FFF7C6FFB2
:100F100001462046FFF7AEFF10BD00BF00ED00E028
:100F2000002807DB00F01F02400901239340024A1A
:100F300042F82030704700BF00E100E00138B0F116
:100F4000807F0BD24FF0E0235861054AF02182F8F0
:100F500023100020986107221A6170470120704712
:100F600000ED00E050B310B402460168144B0B448E
:100F70001448A0FB03031B099B001364124BD363AB
:100F8000022382F8213008686FF30D1053689468CB
:100F90002343D46823431469234354692343946946
:100FA0002343D469234303430B6000209063012350
:100FB00082F8213082F8200010BC70470120704771
:100FC000F8FFFDBFCDCCCCCC0000024038B5C36BE0
:100FD0001A6804682568016C04238B40134235D0DD
:100FE00015F0040F32D0236813F0200F03D12368CB
:100FF00023F0040323600368434A934214D014325D
:10100000934218D01432934217D01432934217D01F
:101010001432934217D01432934202D04FF08062C0
:1010200003E04FF4800200E00422384B5A60C36AA8
:1010300003B1984738BD4022F7E74FF48062F4E7E8
:101040004FF48042F1E74FF48022EEE702238B4019
:1010500013423CD015F0020F39D0236813F0200F53
:1010600006D1236823F00A032360012380F821308E
:101070000368254A934214D0143293421CD0143290
:1010800093421BD0143293421BD0143293421BD094
:101090001432934202D04FF0007203E04FF400127A
:1010A00000E00222194B5A60002380F82030836A46
:1010B000002BBFD09847BDE72022F3E74FF4007222
:1010C000F0E74FF40052EDE74FF40032EAE708236F
:1010D0008B401342AED015F0080FABD0236823F03D
:1010E0000E032360026CC16B012303FA02F24A6013
:1010F000836380F82130002380F82030036B002BBD
:1011000098D0984796E700BF0800024000000240D0
:1011100070B582B00024A446A1E07E4DAB4214D04D
:101120000CD8A5F58015AB420FD005F57025AB4264
:101130000BD0A5F58015AB4210D106E0764DAB4241
:1011400003D005F58035AB4208D18B68002B50D019
:10115000012B49D04261082400E0CC68BEF1FF0FAA
:1011600049D806464FEA8C0233680F25954023EA9A
:10117000050304FA02F2134333604B6813F0805FF7
:101180006BD0664B9A6942F001029A619B6903F049
:1011900001030193019B4FEA9C02951C604B53F89D
:1011A00025600CF00305AD000F23AB4026EA0306D3
:1011B0005C4B984226D003F58063984200F08C8007
:1011C00003F58063984200F0898003F580639842BC
:1011D00016D0042317E0CC680434BFE7CC68083489
:1011E000BCE7CC680C34B9E702610824B6E70024F8
:1011F000B4E70424B2E7061DACF108029200B3E79D
:10120000032300E00023AB4033430232444D45F852
:1012100022304B6813F4801F62D0434A936843EA3C
:101220000E0393604B6813F4001F5FD03E4AD368EF
:1012300043EA0E03D3604B6813F4003F5CD03A4A94
:10124000536843EA0E0353604B6813F4803F59D050
:10125000354A136843EA0E0313600CF1010C0B6866
:1012600033FA0CF254D0012202FA0CF203EA020E15
:1012700032EA0303F1D14B68122B3FF64EAF122B2B
:101280003FF66CAF01A555F823F000BF4B110008E5
:101290005B110008DD110008EF1100085D11000866
:1012A0005D1100085D1100085D1100085D11000866
:1012B0005D1100085D1100085D1100085D11000856
:1012C0005D1100085D1100085D1100085D11000846
:1012D000D7110008E3110008012394E7022392E7E5
:1012E000114A936823EA0E0393609BE70E4AD36882
:1012F00023EA0E03D3609EE70B4A536823EA0E03EA
:101300005360A1E7084A136823EA0E031360A4E7B9
:1013100002B070BD00002210000031100010024029
:101320000000014000080140000401407047000037
:1013300008B5054B5B69034200D108BD024B5861FB
:10134000FFF7F4FFF9E700BF0004014082B0084B4B
:101350001B68084AA2FB03235B0A00FB03F301930B
:1013600000BF019B5A1E0192002BF9D102B07047B9
:1013700000000020D34D6210002800F0F18170B50C
:1013800082B00446036813F0010F2CD0994B5B68C0
:1013900003F00C03042B1DD0964B5B6803F00C0389
:1013A000082B12D06368B3F5803F41D0002B55D194
:1013B00003F1804303F504331A6822F480321A6083
:1013C0001A6822F480221A6037E08A4B5B6813F4B3
:1013D000803FE7D0874B1B6813F4003F03D063685E
:1013E000002B00F0BF81236813F0020F75D0814BF2
:1013F0005B6813F00C0F5FD07E4B5B6803F00C034F
:10140000082B54D02369002B00F08A807A4B0122EC
:101410001A60FFF70DFB0546764B1B6813F0020FB1
:1014200075D1FFF705FB401B0228F5D903209EE18B
:10143000704A136843F480331360636843B3FFF763
:10144000F7FA05466B4B1B6813F4003FCBD1FFF74F
:10145000EFFA401B6428F5D9032088E1B3F5A02FEB
:1014600009D0644B1A6822F480321A601A6822F498
:1014700080221A60E1E703F18043A3F53C331A6848
:1014800042F480221A601A6842F480321A60D4E76B
:10149000FFF7CEFA0546574B1B6813F4003FA2D066
:1014A000FFF7C6FA401B6428F5D903205FE1514BD2
:1014B0005B6813F4803FA5D14E4B1B6813F0020FFD
:1014C00003D02369012B40F04F814A4A136823F06F
:1014D000F803616943EAC1031360236813F0080F3E
:1014E00033D0A369002B5CD0434B0122C3F8802486
:1014F000FFF79EFA05463F4B5B6A13F0020F21D1BE
:10150000FFF796FA401B0228F5D903202FE1394A4C
:10151000136823F0F803616943EAC1031360DCE751
:10152000354B00221A60FFF783FA0546314B1B68E2
:1015300013F0020FD1D0FFF77BFA401B0228F5D938
:10154000032014E10120FFF701FF236813F0040FCB
:1015500000F09680274BDB6913F0805F34D1254B78
:10156000DA6942F08052DA61DB6903F0805301935B
:10157000019B0125214B1B6813F4807F26D0E36873
:10158000012B3DD0002B53D103F1804303F50433ED
:101590001A6A22F001021A621A6A22F004021A621E
:1015A00033E0154B0022C3F88024FFF741FA0546CB
:1015B000104B5B6A13F0020FC7D0FFF739FA401BDC
:1015C0000228F5D90320D2E00025D3E70B4A13689F
:1015D00043F480731360FFF72BFA0646074B1B6832
:1015E00013F4807FCBD1FFF723FA801B6428F5D951
:1015F0000320BCE0001002400000424200700040A6
:101600005F4A136A43F001031362E36833B3FFF7E1
:101610000FFA06465A4B1B6A13F0020F2FD1FFF741
:1016200007FA801B41F288339842F3D903209EE0E9
:10163000052B09D0524B1A6A22F001021A621A6A6B
:1016400022F004021A62E0E74D4B1A6A42F00402EB
:101650001A621A6A42F001021A62D6E7FFF7E8F945
:101660000646474B1B6A13F0020F08D0FFF7E0F95C
:10167000801B41F288339842F3D9032077E0E5B923
:10168000E369002B72D03E4A526802F00C02082A2D
:1016900056D0022B17D03B4B00221A66FFF7C8F931
:1016A0000446374B1B6813F0007F47D0FFF7C0F9A3
:1016B000001B0228F5D9032059E0314AD36923F0F1
:1016C0008053D361DCE72F4B00221A66FFF7B0F995
:1016D00005462B4B1B6813F0007F06D0FFF7A8F9D7
:1016E000401B0228F5D9032041E0236AB3F5803F6F
:1016F0001AD023494B6823F47413226A606A0243A8
:1017000013434B601F4B01221A66FFF791F9044601
:101710001B4B1B6813F0007F0ED1FFF789F9001BEC
:101720000228F5D9032022E0154A536823F4003338
:10173000A1680B435360DCE7002018E0002016E0AE
:10174000012B16D00E4B5B6803F48031226A914264
:1017500011D103F47013626A93420ED1002006E0A7
:1017600001207047012002E0012000E0002002B0CB
:1017700070BD0120FBE70120F9E70120F7E700BF7A
:1017800000100240000042420F4B5B6803F00C0265
:10179000082A01D00D487047C3F383420C49885C86
:1017A00013F4803F0BD0084B5B68C3F34043094AF6
:1017B000D35C064A02FB00F0B0FBF3F07047064B27
:1017C00003FB00F0704700BF0010024000127A00D7
:1017D000602600085C26000800093D00002800F093
:1017E000A08070B50D460446524B1B6803F00703FA
:1017F0008B420BD24F4A136823F007030B4313604D
:10180000136803F007038B4240F08D80236813F0C8
:10181000020F17D013F0040F04D0474A536843F463
:10182000E0635360236813F0080F04D0424A536802
:1018300043F460535360404A536823F0F003A168B7
:101840000B435360236813F0010F31D06368012B01
:1018500020D0022B25D0384A126812F0020F64D033
:1018600035494A6822F0030213434B60FFF7E0F862
:101870000646314B5B6803F00C036268B3EB820FE2
:1018800016D0FFF7D5F8801B41F288339842F0D983
:10189000032045E0284A126812F4003FE0D10120FD
:1018A0003EE0254A126812F0007FD9D1012037E0CE
:1018B000204B1B6803F00703AB420AD91D4A13688B
:1018C00023F007032B431360136803F00703AB42B5
:1018D0002DD1236813F0040F06D0174A536823F460
:1018E000E063E1680B435360236813F0080F07D0EF
:1018F000114A536823F46053216943EAC1035360DA
:10190000FFF742FF0C4B5B68C3F303130B4AD35C36
:10191000D8400B4B18600B4B1868FFF745F80020B8
:1019200070BD012070470120FAE70120F8E701208F
:10193000F6E700BF00200240001002404C260008DD
:101940000000002008000020014B1868704700BF0D
:101950000000002008B5FFF7F7FF044B5B68C3F3F6
:101960000223034AD35CD84008BD00BF00100240E8
:101970004426000808B5FFF7E7FF044B5B68C3F394
:10198000C223034AD35CD84008BD00BF0010024008
:101990004426000870B582B00446036813F0010FB6
:1019A00036D03F4BDB6913F0805F49D13C4BDA699D
:1019B00042F08052DA61DB6903F080530193019BAE
:1019C0000125384B1B6813F4807F3BD0344B1B6AD6
:1019D00013F4407313D0626802F440729A420ED03E
:1019E0002F4A136A23F440702F490126C1F840643E
:1019F0000026C1F84064106213F0010F36D1284A66
:101A0000136A23F4407361680B431362002D3ED1C7
:101A1000236813F0020F06D0214A536823F4404391
:101A2000A1680B435360236813F0100F34D01C4A95
:101A3000536823F48003E1680B43536000202CE0DB
:101A40000025BEE7174A136843F480731360FEF75E
:101A5000EFFF0646134B1B6813F4807FB6D1FEF7E9
:101A6000E7FF801B6428F5D9032016E0FEF7E0FFAE
:101A700006460B4B1B6A13F0020FC0D1FEF7D8FFCE
:101A8000801B41F288339842F3D9032005E0D369E3
:101A900023F08053D361BBE7002002B070BD00BFCC
:101AA00000100240007000400000424230B4026A60
:101AB000036A23F0010303624568836923F073031B
:101AC0000C681C4322F002028B6813430B4A9042BD
:101AD00006D0456084614A684263036230BC704747
:101AE00023F00803CA681A4322F0040325F4407562
:101AF0004A692A438D691543EBE700BF002C01407A
:101B000030B4036A026A22F4807202624468C269D5
:101B100022F073020D68154323F400738A6843EAC8
:101B200002230D4A904206D04460C5614A68C263F0
:101B3000036230BC704723F40063CA6843EA02239F
:101B400023F4806324F440544A6944EA02148A6905
:101B500044EA0214E8E700BF002C014030B4036AF5
:101B6000026A22F4805202624468C26922F4E642A8
:101B70000D6842EA052223F400538D6843EA0533D9
:101B8000074DA84206D04460C2614A6802640362FD
:101B900030BC704724F480444D6944EA8514F2E770
:101BA000002C014010B4036A046A24F001040462AA
:101BB000846924F0F00C4CEA021223F00A030B4370
:101BC0008261036210BC704710B4036A046A24F097
:101BD00010040462846924F4704C4CEA023223F04D
:101BE000A00343EA01138261036210BC704783685B
:101BF00023F070030B4343F0070383607047704783
:101C000070477047704770477047704770B504461B
:101C10000368DE681D6915F0020F10D016F0020F80
:101C20000DD06FF002021A610123037703689B69EC
:101C300013F0030F5ED0FFF7E6FF0023237715F0C4
:101C4000040F12D016F0040F0FD023686FF00402B7
:101C50001A610223237723689B6913F4407F4FD0D6
:101C60002046FFF7D0FF0023237715F0080F12D08E
:101C700016F0080F0FD023686FF008021A610423D2
:101C800023772368DB6913F0030F40D02046FFF76A
:101C9000BAFF0023237715F0100F12D016F0100FA3
:101CA0000FD023686FF010021A610823237723688E
:101CB000DB6913F4407F31D02046FFF7A4FF0023F7
:101CC000237715F0010F02D016F0010F2DD115F07A
:101CD000800F02D016F0800F2FD115F0400F02D0E8
:101CE00016F0400F31D115F0200F02D016F0200F62
:101CF00033D170BDFFF786FF2046FFF785FF9CE7D5
:101D00002046FFF77FFF2046FFF77EFFABE7204628
:101D1000FFF778FF2046FFF777FFBAE72046FFF787
:101D200071FF2046FFF770FFC9E723686FF00102DB
:101D30001A612046FFF765FFC9E723686FF080024C
:101D40001A61204600F0E3FAC7E723686FF040020B
:101D50001A612046FFF759FFC5E723686FF020029C
:101D60001A61204600F0D2FAC3E7000003681F4A58
:101D700090420AD0B0F1804F07D0A2F59432904241
:101D800003D002F58062904203D123F070034A68C9
:101D90001343164A90420AD0B0F1804F07D0A2F503
:101DA0009432904203D002F58062904203D123F432
:101DB0004073CA68134323F080034A6913430360E6
:101DC0008B68C3620B688362084B98420AD0012378
:101DD0004361036913F0010F03D0036923F001038A
:101DE000036170470B690363F1E700BF002C0140FA
:101DF00040B310B5044690F83D30F3B1022384F8A7
:101E00003D30214651F8040BFFF7B0FF012384F861
:101E1000463084F83E3084F83F3084F8403084F80F
:101E2000413084F8423084F8433084F8443084F8F8
:101E3000453084F83D30002010BD80F83C30FEF77E
:101E400093FCDBE70120704740B310B5044690F8DF
:101E50003D30F3B1022384F83D30214651F8040BA4
:101E6000FFF784FF012384F8463084F83E3084F87D
:101E70003F3084F8403084F8413084F8423084F8B0
:101E8000433084F8443084F8453084F83D300020F5
:101E900010BD80F83C30FFF7B2FEDBE70120704751
:101EA00040B310B5044690F83D30F3B1022384F8F6
:101EB0003D30214651F8040BFFF758FF012384F809
:101EC000463084F83E3084F83F3084F8403084F85F
:101ED000413084F8423084F8433084F8443084F848
:101EE000453084F83D30002010BD80F83C30FFF7CD
:101EF00087FEDBE70120704730B4036A026A22F0F4
:101F0000100202624468826922F4E6420D6842EAE5
:101F1000052223F020038D6843EA05130C4DA842E7
:101F200006D0446082614A688263036230BC7047B5
:101F300023F08003CD6843EA051323F0400324F423
:101F400040644D6944EA85048D6944EA8504E8E704
:101F5000002C014090F83C30012B28D010B50446ED
:101F6000012380F83C300C2A1CD8DFE802F0071B64
:101F70001B1B0C1B1B1B111B1B1B16000068FFF7F8
:101F800095FD00200FE00068FFF7B6FF00200AE093
:101F90000068FFF7B5FD002005E00068FFF7DEFDF3
:101FA000002000E00120002384F83C3010BD022016
:101FB000704738B590F83C30012B66D004460D468A
:101FC000012380F83C300C2A5AD8DFE802F0075988
:101FD00059591B5959593059595944000068FFF74C
:101FE00065FD2268936943F0080393612268936951
:101FF00023F0040393612268936929690B43936179
:1020000000203EE00068FFF777FF2268936943F401
:10201000006393612268936923F48063936122686B
:102020009369296943EA01239361002029E000684C
:10203000FFF766FD2268D36943F00803D361226885
:10204000D36923F00403D3612268D36929690B4360
:10205000D361002015E00068FFF780FD2268D36996
:1020600043F40063D3612268D36923F48063D361AE
:102070002268D369296943EA0123D361002000E083
:102080000120002384F83C3038BD0220FCE710B466
:10209000846824F47F4C42EA03220A4342EA0C0299
:1020A000826010BC704790F83C30012B78D010B59E
:1020B0000446012380F83C30022380F83D3002685A
:1020C000936823F47F4323F0770393600B68602BBE
:1020D0004CD023D8402B54D011D8202B03D00AD871
:1020E0000BB1102B05D119462068FFF780FD0020A9
:1020F00028E0012026E0302BF5D0012022E0502BF3
:102100000AD1CA6849680068FFF74CFD5021206871
:10211000FFF76DFD002015E0012013E0B3F5805FAF
:102120003AD0B3F5005F14D0702B37D1CB684A6832
:1021300089680068FFF7ABFF2268936843F0770374
:1021400093600020012384F83D30002384F83C3064
:1021500010BDCB684A6889680068FFF798FF22685D
:10216000936843F4804393600020EBE7CA684968B2
:102170000068FFF729FD60212068FFF738FD002087
:10218000E0E7CA6849680068FFF70CFD4021206855
:10219000FFF72DFD0020D5E70020D3E70120D1E790
:1021A0000220704701F01F014FF0010C0CFA01FCF6
:1021B000036A23EA0C030362036A8A40134303623F
:1021C0007047000010B50446084651BB94F83E30F5
:1021D000DBB2013B18BF0123002B5BD1002839D1B2
:1021E000022384F83E30012201462068FFF7DAFF1F
:1021F00023682A4A93423DD02368284A93423ED01E
:10220000B3F1804F3BD0A2F59432934237D002F520
:102210008062934233D01A6842F001021A600020B3
:1022200039E0042908D008290DD094F84130DBB2F8
:10223000013B18BF0123CFE794F83F30DBB2013BED
:1022400018BF0123C8E794F84030DBB2013B18BF48
:102250000123C1E7042805D0082807D0022384F809
:102260004130C0E7022384F83F30BCE7022384F802
:102270004030B8E75A6C42F400425A64BCE79A68AE
:1022800002F00702062A07D01A6842F001021A601B
:10229000002000E0012010BD0020FCE7002C0140E0
:1022A00090F83C20012A2CD010B40346012280F87B
:1022B0003C20022280F83D2002685068946820F09B
:1022C000700C086840EA0C0050601A680E488242A0
:1022D0000AD0B2F1804F07D0A0F59430824203D0EB
:1022E00000F58060824204D124F0800449682143D3
:1022F0009160012283F83D20002083F83C0010BC4F
:1023000070470220704700BF002C014070477047A3
:10231000026802F10C0353E8003F23F490730C327F
:1023200042E800310029F3D1026802F1140353E8B6
:10233000003F23F00103143242E800310029F3D1B9
:10234000036B012B05D0202380F842300023036368
:102350007047026802F10C0353E8003F23F01003BA
:102360000C3242E800310029F3D1ECE710B5044605
:102370000268136923F44053C1680B4313618368F7
:102380000269134342691A430168CB6823F4B053CE
:1023900023F00C031343CB600268536923F44073AA
:1023A00081690B4353610268134B9A4220D0FFF7B7
:1023B000D1FA024602EB820202EB820263689B00C2
:1023C000B2FBF3F20D48A0FB02314909642303FB81
:1023D00011231B013233A0FB03035B0903F0F0025E
:1023E00002EB011203F00F03216813448B6010BD50
:1023F000FFF7C0FA0246DDE7003801401F85EB51C8
:102400002DE9F04383B005460E4617469946DDF8A0
:1024100028802B681C6836EA04040CBF01240024C1
:10242000BC4228D1B8F1FF3FF3D0FEF701FBA0EB8F
:102430000900404523D8B8F1000F22D02B68DA6894
:1024400012F0040FE5D0802EE3D0402EE1D01A68C0
:1024500012F0080FDDD0002401941A6801925B6825
:102460000193019B2846FFF753FF08236B6485F80F
:102470004040012000E0002003B0BDE8F0830320CD
:10248000FAE70320F8E760B310B5044690F841304E
:1024900013B3242384F841302268D36823F4005313
:1024A000D3602046FFF762FF2268136923F490434C
:1024B00013612268536923F02A0353612268D368A9
:1024C00043F40053D36000206064202384F841303B
:1024D00084F84230606310BD80F84030FEF72AFA7D
:1024E000D7E7012070472DE9F04182B01E4690F8F1
:1024F0004130DBB2202B56D104460D4690460029D0
:1025000055D00AB901204FE000234364212380F80D
:102510004130FEF78DFA0746A4F82480A4F82680FF
:10252000A368B3F5805F02D04FF0000814E0236980
:102530002BB34FF000080FE0202384F84130032034
:1025400032E038F8023B2268C3F308035360E28CA0
:1025500092B2013A92B2E284E38C9BB293B10096BC
:102560003B46002280212046FFF74AFF0028E3D1A6
:10257000002DE6D015F8012B23685A60E7E7A8463E
:102580000025E9E700963B46002240212046FFF760
:1025900037FF18B9202384F8413005E0202384F860
:1025A0004130032000E0022002B0BDE8F0810120AC
:1025B000FAE70000FEF7D6F80B480C490C4A002356
:1025C00002E0D458C4500433C4188C42F9D3094AE9
:1025D000094C002301E013600432A242FBD3FDF753
:1025E000CDFEFEF741F87047000000200C000020EF
:1025F000842600080C000020C4020020FEE7000032
:10260000024B13B10248FDF7E1BE70470000000025
:10261000D9030008F8B500BFF8BC08BC9E46704757
:0C262000F8B500BFF8BC08BC9E4670472F
:10262C0048656C6C6F2066726F6D204E75636C65BF
:10263C006F210D0A000000000000000001020304DD
:10264C000000000000000000010203040607080956
:10265C000102000002030405060708090A0B0C0D11
:04266C000E0F10102D
:0826700090DBFF7F0100000078
:0826780001260008A901000879
:0426800081010008CC
:0C26840000127A000100000010000000AD
:04000005080025B515
:00000001FF
