:020000040800F2
:1000000000500020C51B0008E1040008E3040008BC
:10001000E5040008E7040008E90400080000000007
:10002000000000000000000000000000EB040008D9
:10003000ED04000800000000EF040008F1040008CF
:100040000D1C00080D1C00080D1C00080D1C0008EC
:100050000D1C00080D1C00080D1C00080D1C0008DC
:100060000D1C00080D1C00080D1C00080D1C0008CC
:100070000D1C00080D1C00080D1C0008F9040008E8
:100080000D1C00080D1C00080D1C00080D1C0008AC
:100090000D1C00080D1C00080D1C00080D1C00089C
:1000A0000D1C00080D1C00080D1C00080D1C00088C
:1000B000090500080D1C00080D1C00080D1C000897
:1000C0000D1C00080D1C00080D1C00080D1C00086C
:1000D0000D1C00080D1C00080D1C00080D1C00085C
:1000E000190500080D1C00080D1C00080000000088
:1000F0000000000000000000000000000000000000
:0C01000000000000000000005FF808F1A3
:10010C000348044B834202D0034B03B1184770479A
:10011C000C0000200C000020000000000548064BDD
:10012C001B1AD90F01EBA301491002D0034B03B1E9
:10013C00184770470C0000200C0000200000000045
:10014C0010B5064C237843B9FFF7DAFF044B13B113
:10015C000448AFF300800123237010BD0C00002075
:10016C0000000000241C000808B5044B1BB1044916
:10017C000448AFF30080BDE80840CFE70000000062
:10018C0010000020241C0008830730B547D0541EF3
:10019C00002A3ED0CAB2034601E0013C39D303F831
:1001AC00012B9D07F9D1032C2CD9CDB205EB0525DC
:1001BC000F2C05EB054535D9A4F1100222F00F0CDC
:1001CC0003F1100EE6444FEA121C1A46C2E9005520
:1001DC00C2E9025510327245F8D10CF1010214F04B
:1001EC000C0F03EB021204F00F0C13D0ACF1040350
:1001FC0023F003030433134442F8045B9342FBD112
:10020C000CF003042CB1C9B21C4403F8011BA3422B
:10021C00FBD130BD64461346002CF4D1F9E70346FC
:10022C001446C0E71A46A446E0E700BF70B50F4B72
:10023C000F4DAB42A3EB050607D0B610002455F8C2
:10024C00043B01349847A642F9D801F0E5FC094D6E
:10025C00094B5E1BAB424FEAA60606D0002455F8AC
:10026C00043B01349847A642F9D870BD681C0008BD
:10027C00681C0008681C0008701C0008002301465C
:10028C001A46184600F014B838B5074D074C2C1B0D
:10029C00A41005D0013C55F8043D9847002CF9D129
:1002AC00BDE8384001F0BEBC741C0008701C00088E
:1002BC0070B4164D2C681CB365681F2D23DC38B93F
:1002CC00AB1C0135656044F82310002070BC7047EE
:1002DC0004EB850C0228CCF88820D4F888614FF008
:1002EC00010202FA05F246EA0206C4F88861CCF86B
:1002FC000831E5D1D4F88C311343C4F88C31DFE7E5
:10030C00034C2C60D8E74FF0FF30DFE728000020CB
:10031C002C00002030B589B0002404940594069478
:10032C000794254B9A6942F010029A619A6902F07F
:10033C0010020092009A9A6942F020029A619A691E
:10034C0002F020020192019A9A6942F004029A6129
:10035C009A6902F004020292029A9A6942F0080227
:10036C009A619B6903F008030393039B134D224688
:10037C002021284600F098FC4FF400530493104BB6
:10038C000593069404A90F4800F080FB20230493E6
:10039C000123059306940223079304A9284600F031
:1003AC0075FB22462146282000F068FA282000F030
:1003BC0075FA09B030BD00BF0010024000080140C2
:1003CC000000111000100140014B1B68586370476E
:1003DC000002002010B540F2DC540BE04FF47A70B0
:1003EC0000F0F2F94FF4FA642046FFF7EDFF142009
:1003FC0000F0EAF9143CA4B2B4F57A7FEED3F3E73B
:10040C0072B6FEE700B591B02822002106A8FFF7CE
:10041C00BBFE0023019302930393049305930122E3
:10042C0006924FF4803307930A9202220D920E9398
:10043C004FF4E0130F9306A800F062FC80B90F2371
:10044C00019302210291002303934FF480620492E2
:10045C00059301A800F086FE20B911B05DF804FBED
:10046C00FFF7CEFFFFF7CCFF08B500F089F9FFF7D7
:10047C00C9FFFFF74FFF00F0B3F800F011F90021AE
:10048C00024801F079FAFFF7A5FF00BF0002002037
:10049C0082B00E4B9A6942F001029A619A6902F09D
:1004AC0001020092009ADA6942F08052DA61DB694B
:1004BC0003F080530193019B054A536823F0E063DA
:1004CC0043F00073536002B0704700BF001002404D
:1004DC0000000140FEE7FEE7FEE7FEE7FEE770479F
:1004EC007047704708B500F05DF908BD08B50248C3
:1004FC0000F02AFA08BD00BFBC01002008B5024874
:10050C0000F0BBFF08BD00BF0002002008B54FF48F
:10051C00005000F0D1FB08BD704700000368B3F138
:10052C00804F00D0704710B582B0044603F50433F9
:10053C00DA6942F00102DA61DB6903F0010301932D
:10054C00019B1248124B036010234360002383600D
:10055C008022C2604FF4807202614FF4806242616B
:10056C008361C36100F0BCF960B9084B63625C62E3
:10057C00002211461C2000F081F91C2000F08EF99D
:10058C0002B010BDFFF73CFFEFE700BFBC0100203D
:10059C005800024000B587B00023029303930493E4
:1005AC0005930368B3F1804F02D007B05DF804FBEC
:1005BC0003F504339A6942F004029A619B6903F0D3
:1005CC0004030193019B01230293022303930593DC
:1005DC0002A9024800F05AFAE7E700BF0008014000
:1005EC0000B58FB000230A930B930C930D930893D3
:1005FC000993019302930393049305930693079332
:10060C0026484FF08042026047224260836044F6E5
:10061C001F62C2600361836101F020F858BB4FF484
:10062C0080530A930AA91D4801F018F930BB1B48E6
:10063C0001F040F828BB00230893099308A9174838
:10064C0001F008FA00BB602301930022029203928E
:10065C00059201A9114801F087F8C0B904220DEBED
:10066C0002010E4801F080F8A0B90C48FFF792FF88
:10067C000FB05DF804FBFFF7C3FED0E7FFF7C0FE39
:10068C00D5E7FFF7BDFED6E7FFF7BAFEDBE7FFF7CE
:10069C00B7FEE3E7FFF7B4FEE7E700BF0002002078
:1006AC0008B50A480A4B03604FF4E133436000235A
:1006BC008360C36003610C2242618361C36101F0FA
:1006CC004BFA00B908BDFFF79BFEFBE74802002080
:1006DC000044004000B587B00023029303930493B9
:1006EC0005930268114B9A4202D007B05DF804FBE7
:1006FC0003F5E633DA6942F40032DA61DA6902F4BE
:10070C0000320092009A9A6942F004029A619B6945
:10071C0003F004030193019B0C2302930223039324
:10072C00059302A9024800F0B1F9DEE7004400404D
:10073C000008014010B504460E4B1A784FF47A733A
:10074C00B3FBF2F30C4A1068B0FBF3F000F0B4F812
:10075C0068B90F2C01D901200AE0002221464FF084
:10076C00FF3000F08BF8054B1C60002000E00120EE
:10077C0010BD00BF04000020000000200800002075
:10078C0008B5074A136843F010031360032000F008
:10079C0063F80020FFF7CEFFFFF77AFE002008BDBC
:1007AC0000200240034A1168034B1B780B44136072
:1007BC00704700BF9002002004000020014B186815
:1007CC00704700BF9002002038B50446FFF7F6FFD3
:1007DC000546B4F1FF3F02D0044B1B781C44FFF7D5
:1007EC00EDFF401BA042FAD338BD00BF040000202F
:1007FC00002808DB0901C9B200F1604000F5614036
:10080C0080F80013704700F00F000901C9B2014BCA
:10081C001954704714ED00E000B500F00700C0F16A
:10082C00070CBCF1040F28BF4FF0040C031D062B62
:10083C000FD9C31E4FF0FF3E0EFA0CF021EA000157
:10084C0099400EFA03FE22EA0E0241EA02005DF81C
:10085C0004FB0023EEE70000074AD36823F4E063AF
:10086C001B041B0C000200F4E060034343F0BF6365
:10087C0043F40033D360704700ED00E010B504463C
:10088C00054BD868C0F30220FFF7C6FF014620468F
:10089C00FFF7AEFF10BD00BF00ED00E0002807DB46
:1008AC0000F01F02400901239340024A42F8203015
:1008BC00704700BF00E100E00138B0F1807F0BD23F
:1008CC004FF0E0235861054AF02182F823100020F4
:1008DC00986107221A6170470120704700ED00E013
:1008EC0050B310B402460168144B0B441448A0FBDF
:1008FC0003031B099B001364124BD363022382F87E
:10090C00213008686FF30D10536894682343D46842
:10091C002343146923435469234394692343D469BF
:10092C00234303430B6000209063012382F82130A2
:10093C0082F8200010BC704701207047F8FFFDBF03
:10094C00CDCCCCCC0000024038B5C36B1A6804681F
:10095C002568016C04238B40134235D015F0040F2D
:10096C0032D0236813F0200F03D1236823F0040343
:10097C0023600368434A934214D01432934218D034
:10098C001432934217D01432934217D0143293423C
:10099C0017D01432934202D04FF0806203E04FF430
:1009AC00800200E00422384B5A60C36A03B19847B6
:1009BC0038BD4022F7E74FF48062F4E74FF48042F1
:1009CC00F1E74FF48022EEE702238B4013423CD038
:1009DC0015F0020F39D0236813F0200F06D12368CD
:1009EC0023F00A032360012380F821300368254A91
:1009FC00934214D0143293421CD0143293421BD025
:100A0C00143293421BD0143293421BD014329342B3
:100A1C0002D04FF0007203E04FF4001200E002220B
:100A2C00194B5A60002380F82030836A002BBFD00A
:100A3C009847BDE72022F3E74FF40072F0E74FF43C
:100A4C000052EDE74FF40032EAE708238B401342E3
:100A5C00AED015F0080FABD0236823F00E03236043
:100A6C00026CC16B012303FA02F24A60836380F8C3
:100A7C002130002380F82030036B002B98D098474E
:100A8C0096E700BF080002400000024070B582B03B
:100A9C000024A446A1E07E4DAB4214D00CD8A5F5A1
:100AAC008015AB420FD005F57025AB420BD0A5F5E8
:100ABC008015AB4210D106E0764DAB4203D005F564
:100ACC008035AB4208D18B68002B50D0012B49D01C
:100ADC004261082400E0CC68BEF1FF0F49D80646FD
:100AEC004FEA8C0233680F25954023EA050304FA7C
:100AFC0002F2134333604B6813F0805F6BD0664B8C
:100B0C009A6942F001029A619B6903F00103019317
:100B1C00019B4FEA9C02951C604B53F825600CF02E
:100B2C000305AD000F23AB4026EA03065C4B98424D
:100B3C0026D003F58063984200F08C8003F5806327
:100B4C00984200F0898003F58063984216D0042304
:100B5C0017E0CC680434BFE7CC680834BCE7CC6839
:100B6C000C34B9E702610824B6E70024B4E7042486
:100B7C00B2E7061DACF108029200B3E7032300E0D4
:100B8C000023AB4033430232444D45F822304B68CE
:100B9C0013F4801F62D0434A936843EA0E039360B8
:100BAC004B6813F4001F5FD03E4AD36843EA0E0330
:100BBC00D3604B6813F4003F5CD03A4A536843EA65
:100BCC000E0353604B6813F4803F59D0354A1368B9
:100BDC0043EA0E0313600CF1010C0B6833FA0CF2B0
:100BEC0054D0012202FA0CF203EA020E32EA030399
:100BFC00F1D14B68122B3FF64EAF122B3FF66CAF78
:100C0C0001A555F823F000BFD30A0008E30A000839
:100C1C00650B0008770B0008E50A0008E50A0008D8
:100C2C00E50A0008E50A0008E50A0008E50A0008DC
:100C3C00E50A0008E50A0008E50A0008E50A0008CC
:100C4C00E50A0008E50A0008E50A00085F0B000841
:100C5C006B0B0008012394E7022392E7114A936877
:100C6C0023EA0E0393609BE70E4AD36823EA0E0334
:100C7C00D3609EE70B4A536823EA0E035360A1E747
:100C8C00084A136823EA0E031360A4E702B070BD90
:100C9C000000221000003110001002400000014042
:100CAC0000080140000401400AB1016170470904C9
:100CBC00016170477047000008B5054B5B69034242
:100CCC0000D108BD024B5861FFF7F4FFF9E700BFF4
:100CDC000004014082B0084B1B68084AA2FB0323A6
:100CEC005B0A00FB03F3019300BF019B5A1E0192A8
:100CFC00002BF9D102B0704700000020D34D6210D8
:100D0C00002800F0F18170B582B00446036813F03E
:100D1C00010F2CD0994B5B6803F00C03042B1DD0F6
:100D2C00964B5B6803F00C03082B12D06368B3F589
:100D3C00803F41D0002B55D103F1804303F50433A0
:100D4C001A6822F480321A601A6822F480221A601F
:100D5C0037E08A4B5B6813F4803FE7D0874B1B6806
:100D6C0013F4003F03D06368002B00F0BF812368AD
:100D7C0013F0020F75D0814B5B6813F00C0F5FD032
:100D8C007E4B5B6803F00C03082B54D02369002BBB
:100D9C0000F08A807A4B01221A60FFF70FFD05469E
:100DAC00764B1B6813F0020F75D1FFF707FD401B44
:100DBC000228F5D903209EE1704A136843F480336E
:100DCC001360636843B3FFF7F9FC05466B4B1B6874
:100DDC0013F4003FCBD1FFF7F1FC401B6428F5D98D
:100DEC00032088E1B3F5A02F09D0644B1A6822F4D4
:100DFC0080321A601A6822F480221A60E1E703F14B
:100E0C008043A3F53C331A6842F480221A601A68B6
:100E1C0042F480321A60D4E7FFF7D0FC0546574BFA
:100E2C001B6813F4003FA2D0FFF7C8FC401B6428DA
:100E3C00F5D903205FE1514B5B6813F4803FA5D1DA
:100E4C004E4B1B6813F0020F03D02369012B40F0AB
:100E5C004F814A4A136823F0F803616943EAC103DE
:100E6C001360236813F0080F33D0A369002B5CD0F8
:100E7C00434B0122C3F88024FFF7A0FC05463F4BEF
:100E8C005B6A13F0020F21D1FFF798FC401B02287C
:100E9C00F5D903202FE1394A136823F0F80361696F
:100EAC0043EAC1031360DCE7354B00221A60FFF7FD
:100EBC0085FC0546314B1B6813F0020FD1D0FFF7B0
:100ECC007DFC401B0228F5D9032014E10120FFF71B
:100EDC0001FF236813F0040F00F09680274BDB69A9
:100EEC0013F0805F34D1254BDA6942F08052DA611D
:100EFC00DB6903F080530193019B0125214B1B6897
:100F0C0013F4807F26D0E368012B3DD0002B53D106
:100F1C0003F1804303F504331A6A22F001021A62CA
:100F2C001A6A22F004021A6233E0154B0022C3F84D
:100F3C008024FFF743FC0546104B5B6A13F0020F4D
:100F4C00C7D0FFF73BFC401B0228F5D90320D2E0A9
:100F5C000025D3E70B4A136843F480731360FFF743
:100F6C002DFC0646074B1B6813F4807FCBD1FFF793
:100F7C0025FC801B6428F5D90320BCE0001002403E
:100F8C0000004242007000405F4A136A43F00103C4
:100F9C001362E36833B3FFF711FC06465A4B1B6A26
:100FAC0013F0020F2FD1FFF709FC801B41F288339D
:100FBC009842F3D903209EE0052B09D0524B1A6AB4
:100FCC0022F001021A621A6A22F004021A62E0E7A5
:100FDC004D4B1A6A42F004021A621A6A42F001027C
:100FEC001A62D6E7FFF7EAFB0646474B1B6A13F07B
:100FFC00020F08D0FFF7E2FB801B41F288339842C6
:10100C00F3D9032077E0E5B9E369002B72D03E4AAF
:10101C00526802F00C02082A56D0022B17D03B4B18
:10102C0000221A66FFF7CAFB0446374B1B6813F005
:10103C00007F47D0FFF7C2FB001B0228F5D9032025
:10104C0059E0314AD36923F08053D361DCE72F4B4D
:10105C0000221A66FFF7B2FB05462B4B1B6813F0F8
:10106C00007F06D0FFF7AAFB401B0228F5D903200E
:10107C0041E0236AB3F5803F1AD023494B6823F42F
:10108C007413226A606A024313434B601F4B0122A4
:10109C001A66FFF793FB04461B4B1B6813F0007F8B
:1010AC000ED1FFF78BFB001B0228F5D9032022E0A1
:1010BC00154A536823F40033A1680B435360DCE7F3
:1010CC00002018E0002016E0012B16D00E4B5B68B8
:1010DC0003F48031226A914211D103F47013626AD5
:1010EC0093420ED1002006E001207047012002E05F
:1010FC00012000E0002002B070BD0120FBE70120C0
:10110C00F9E70120F7E700BF00100240000042425F
:10111C000F4B5B6803F00C02082A01D00D48704796
:10112C00C3F383420C49885C13F4803F0BD0084B0B
:10113C005B68C3F34043094AD35C064A02FB00F0E8
:10114C00B0FBF3F07047064B03FB00F0704700BF99
:10115C000010024000127A00581C0008541C0008B1
:10116C0000093D00002800F0A08070B50D46044633
:10117C00524B1B6803F007038B420BD24F4A136888
:10118C0023F007030B431360136803F007038B4230
:10119C0040F08D80236813F0020F17D013F0040F6A
:1011AC0004D0474A536843F4E0635360236813F058
:1011BC00080F04D0424A536843F460535360404ACA
:1011CC00536823F0F003A1680B435360236813F0BA
:1011DC00010F31D06368012B20D0022B25D0384A67
:1011EC00126812F0020F64D035494A6822F00302EB
:1011FC0013434B60FFF7E2FA0646314B5B6803F092
:10120C000C036268B3EB820F16D0FFF7D7FA801B82
:10121C0041F288339842F0D9032045E0284A1268FD
:10122C0012F4003FE0D101203EE0254A126812F092
:10123C00007FD9D1012037E0204B1B6803F0070356
:10124C00AB420AD91D4A136823F007032B431360E2
:10125C00136803F00703AB422DD1236813F0040F7E
:10126C0006D0174A536823F4E063E1680B435360DC
:10127C00236813F0080F07D0114A536823F4605306
:10128C00216943EAC1035360FFF742FF0C4B5B68D3
:10129C00C3F303130B4AD35CD8400B4B18600B4BB6
:1012AC001868FFF747FA002070BD01207047012035
:1012BC00FAE70120F8E70120F6E700BF0020024022
:1012CC0000100240441C0008000000200800002010
:1012DC00014B1868704700BF0000002008B5FFF7ED
:1012EC00F7FF044B5B68C3F30223034AD35CD8407B
:1012FC0008BD00BF001002403C1C000808B5FFF7F9
:10130C00E7FF044B5B68C3F3C223034AD35CD840AA
:10131C0008BD00BF001002403C1C000830B4026A3B
:10132C00036A23F0010303624568836923F07303A6
:10133C000C681C4322F002028B6813430B4A904248
:10134C0006D0456084614A684263036230BC7047D2
:10135C0023F00803CA681A4322F0040325F44075ED
:10136C004A692A438D691543EBE700BF002C014005
:10137C0030B4036A026A22F4807202624468C26961
:10138C0022F073020D68154323F400738A6843EA54
:10139C0002230D4A904206D04460C5614A68C2637C
:1013AC00036230BC704723F40063CA6843EA02232B
:1013BC0023F4806324F440544A6944EA02148A6991
:1013CC0044EA0214E8E700BF002C014030B4036A81
:1013DC00026A22F4805202624468C26922F4E64234
:1013EC000D6842EA052223F400538D6843EA053365
:1013FC00074DA84206D04460C2614A680264036289
:10140C0030BC704724F480444D6944EA8514F2E7FB
:10141C00002C014010B4036A046A24F00104046235
:10142C00846924F0F00C4CEA021223F00A030B43FB
:10143C008261036210BC704710B4036A046A24F022
:10144C0010040462846924F4704C4CEA023223F0D8
:10145C00A00343EA01138261036210BC70478368E6
:10146C0023F070030B4343F007038360704770470E
:10147C007047704770477047704770B504460368F3
:10148C00DE681D6915F0020F10D016F0020F0DD09A
:10149C006FF002021A610123037703689B6913F052
:1014AC00030F5ED0FFF7E6FF0023237715F0040F40
:1014BC0012D016F0040F0FD023686FF004021A61DB
:1014CC000223237723689B6913F4407F4FD0204677
:1014DC00FFF7D0FF0023237715F0080F12D016F07A
:1014EC00080F0FD023686FF008021A6104232377CA
:1014FC002368DB6913F0030F40D02046FFF7BAFFD7
:10150C000023237715F0100F12D016F0100F0FD008
:10151C0023686FF010021A61082323772368DB69B4
:10152C0013F4407F31D02046FFF7A4FF002323772C
:10153C0015F0010F02D016F0010F2DD115F0800F10
:10154C0002D016F0800F2FD115F0400F02D016F0FC
:10155C00400F31D115F0200F02D016F0200F33D1EF
:10156C0070BDFFF786FF2046FFF785FF9CE72046FE
:10157C00FFF77FFF2046FFF77EFFABE72046FFF724
:10158C0078FF2046FFF777FFBAE72046FFF771FF99
:10159C002046FFF770FFC9E723686FF001021A615C
:1015AC002046FFF765FFC9E723686FF080021A61D8
:1015BC00204600F086FAC7E723686FF040021A61F4
:1015CC002046FFF759FFC5E723686FF020021A6128
:1015DC00204600F075FAC3E703681F4A90420AD010
:1015EC00B0F1804F07D0A2F59432904203D002F5AF
:1015FC008062904203D123F070034A681343164A69
:10160C0090420AD0B0F1804F07D0A2F594329042AC
:10161C0003D002F58062904203D123F44073CA6870
:10162C00134323F080034A69134303608B68C3623E
:10163C000B688362084B98420AD00123436103690B
:10164C0013F0010F03D0036923F00103036170470A
:10165C000B690363F1E700BF002C014040B310B5E8
:10166C00044690F83D30F3B1022384F83D30214616
:10167C0051F8040BFFF7B0FF012384F8463084F8CF
:10168C003E3084F83F3084F8403084F8413084F8A0
:10169C00423084F8433084F8443084F8453084F880
:1016AC003D30002010BD80F83C30FEF737FFDBE703
:1016BC000120704740B310B5044690F83D30F3B1AB
:1016CC00022384F83D30214651F8040BFFF784FFC8
:1016DC00012384F8463084F83E3084F83F3084F897
:1016EC00403084F8413084F8423084F8433084F838
:1016FC00443084F8453084F83D30002010BD80F82B
:10170C003C30FFF7B4FEDBE70120704730B4036ACE
:10171C00026A22F0100202624468826922F4E642F4
:10172C000D6842EA052223F020038D6843EA051375
:10173C000C4DA84206D0446082614A688263036201
:10174C0030BC704723F08003CD6843EA051323F0C7
:10175C00400324F440644D6944EA85048D6944EAED
:10176C008504E8E7002C014038B590F83C30012B9B
:10177C0066D004460D46012380F83C300C2A5AD81A
:10178C00DFE802F0075959591B5959593059595921
:10179C0044000068FFF7C2FD2268936943F0080318
:1017AC0093612268936923F004039361226893691F
:1017BC0029690B43936100203EE00068FFF7A6FF08
:1017CC002268936943F4006393612268936923F45C
:1017DC008063936122689369296943EA01239361C9
:1017EC00002029E00068FFF7C3FD2268D36943F0AD
:1017FC000803D3612268D36923F00403D361226800
:10180C00D36929690B43D361002015E00068FFF709
:10181C00DDFD2268D36943F40063D3612268D36988
:10182C0023F48063D3612268D369296943EA0123D5
:10183C00D361002000E00120002384F83C3038BD47
:10184C000220FCE710B4846824F47F4C42EA0322A3
:10185C000A4342EA0C02826010BC704790F83C309C
:10186C00012B78D010B50446012380F83C300223BC
:10187C0080F83D300268936823F47F4323F07703AC
:10188C0093600B68602B4CD023D8402B54D011D8CC
:10189C00202B03D00AD80BB1102B05D11946206888
:1018AC00FFF7DDFD002028E0012026E0302BF5D0ED
:1018BC00012022E0502B0AD1CA6849680068FFF762
:1018CC00A9FD50212068FFF7CAFD002015E001207A
:1018DC0013E0B3F5805F3AD0B3F5005F14D0702BF2
:1018EC0037D1CB684A6889680068FFF7ABFF22687C
:1018FC00936843F0770393600020012384F83D3014
:10190C00002384F83C3010BDCB684A6889680068B5
:10191C00FFF798FF2268936843F48043936000209C
:10192C00EBE7CA6849680068FFF786FD602120680C
:10193C00FFF795FD0020E0E7CA6849680068FFF7EB
:10194C0069FD40212068FFF78AFD0020D5E70020C3
:10195C00D3E70120D1E70220704701F01F014FF0BF
:10196C00010C0CFA01FC036A23EA0C030362036A00
:10197C008A4013430362704710B50446084651BBB6
:10198C0094F83E30DBB2013B18BF0123002B5BD136
:10199C00002839D1022384F83E3001220146206808
:1019AC00FFF7DBFF23682A4A93423DD02368284A7D
:1019BC0093423ED0B3F1804F3BD0A2F59432934288
:1019CC0037D002F58062934233D01A6842F001029C
:1019DC001A60002039E0042908D008290DD094F8A9
:1019EC004130DBB2013B18BF0123CFE794F83F3005
:1019FC00DBB2013B18BF0123C8E794F84030DBB2DF
:101A0C00013B18BF0123C1E7042805D0082807D0E3
:101A1C00022384F84130C0E7022384F83F30BCE74E
:101A2C00022384F84030B8E75A6C42F400425A64FE
:101A3C00BCE79A6802F00702062A07D01A6842F03F
:101A4C0001021A60002000E0012010BD0020FCE71C
:101A5C00002C014090F83C20012A2CD010B40346F5
:101A6C00012280F83C20022280F83D200268506858
:101A7C00946820F0700C086840EA0C0050601A68FA
:101A8C000E4882420AD0B2F1804F07D0A0F59430B4
:101A9C00824203D000F58060824204D124F080049D
:101AAC00496821439160012283F83D20002083F88E
:101ABC003C0010BC70470220704700BF002C014056
:101ACC007047704710B504460268136923F44053FD
:101ADC00C1680B43136183680269134342691A435B
:101AEC000168CB6823F4B05323F00C031343CB6091
:101AFC000268536923F4407381690B435361026894
:101B0C00134B9A4220D0FFF7E9FB024602EB82020C
:101B1C0002EB820263689B00B2FBF3F20D48A0FB60
:101B2C0002314909642303FB11231B013233A0FB4F
:101B3C0003035B0903F0F00202EB011203F00F0345
:101B4C00216813448B6010BDFFF7D8FB0246DDE71C
:101B5C00003801401F85EB5160B310B5044690F876
:101B6C00413013B3242384F841302268D36823F422
:101B7C000053D3602046FFF7A5FF2268136923F4B6
:101B8C00904313612268536923F02A03536122683E
:101B9C00D36843F40053D36000206064202384F89E
:101BAC00413084F84230606310BD80F84030FEF75D
:101BBC0091FDD7E701207047FEF7AEFC0B480C49AE
:101BCC000C4A002302E0D458C4500433C4188C428D
:101BDC00F9D3094A094C002301E013600432A242F4
:101BEC00FBD3FEF723FBFEF73FFC70470000002001
:101BFC000C000020741C00080C0000209402002033
:101C0C00FEE70000024B13B10248FEF737BB7047EA
:101C1C000000000095020008F8B500BFF8BC08BC35
:101C2C009E467047F8B500BFF8BC08BC9E4670478E
:101C3C00000000000102030400000000000000008E
:101C4C00010203040607080901020000020304054F
:0C1C5C00060708090A0B0C0D0E0F1010F3
:081C6800111C000875010008C1
:041C70004D0100081A
:0C1C740000127A000100000010000000C7
:0400000508001BC50F
:00000001FF
