:020000040800F2
:1000000000500020912500085D0600085F060008EA
:10001000610600086306000865060008000000008D
:10002000000000000000000000000000670600085B
:1000300069060008000000006B0600086D06000855
:10004000D9250008D9250008D9250008D925000898
:10005000D9250008D9250008D9250008D925000888
:10006000D9250008D9250008D9250008D925000878
:10007000D9250008D9250008D925000875060008EB
:10008000D9250008D9250008D9250008D925000858
:10009000D9250008D9250008D9250008D925000848
:1000A000D9250008D9250008D9250008D925000838
:1000B00085060008D9250008D9250008D92500089B
:1000C000D9250008D9250008D9250008D925000818
:1000D000D9250008D9250008D9250008D925000808
:1000E00095060008D9250008D92500080000000061
:1000F0000000000000000000000000000000000000
:0C01000000000000000000005FF808F1A3
:10010C000348044B834202D0034B03B1184770479A
:10011C000C0000200C000020000000000548064BDD
:10012C001B1AD90F01EBA301491002D0034B03B1E9
:10013C00184770470C0000200C0000200000000045
:10014C0010B5064C237843B9FFF7DAFF044B13B113
:10015C000448AFF300800123237010BD0C00002075
:10016C0000000000F025000808B5044B1BB1044941
:10017C000448AFF30080BDE80840CFE70000000062
:10018C0010000020F0250008830730B547D0541E1E
:10019C00002A3ED0CAB2034601E0013C39D303F831
:1001AC00012B9D07F9D1032C2CD9CDB205EB0525DC
:1001BC000F2C05EB054535D9A4F1100222F00F0CDC
:1001CC0003F1100EE6444FEA121C1A46C2E9005520
:1001DC00C2E9025510327245F8D10CF1010214F04B
:1001EC000C0F03EB021204F00F0C13D0ACF1040350
:1001FC0023F003030433134442F8045B9342FBD112
:10020C000CF003042CB1C9B21C4403F8011BA3422B
:10021C00FBD130BD64461346002CF4D1F9E70346FC
:10022C001446C0E71A46A446E0E700BF70B50F4B72
:10023C000F4DAB42A3EB050607D0B610002455F8C2
:10024C00043B01349847A642F9D802F0CBF9094D8A
:10025C00094B5E1BAB424FEAA60606D0002455F8AC
:10026C00043B01349847A642F9D870BD48260008D3
:10027C00482600084826000850260008002301469E
:10028C001A46184600F014B838B5074D074C2C1B0D
:10029C00A41005D0013C55F8043D9847002CF9D129
:1002AC00BDE8384002F0A4B95426000850260008D6
:1002BC0070B4164D2C681CB365681F2D23DC38B93F
:1002CC00AB1C0135656044F82310002070BC7047EE
:1002DC0004EB850C0228CCF88820D4F888614FF008
:1002EC00010202FA05F246EA0206C4F88861CCF86B
:1002FC000831E5D1D4F88C311343C4F88C31DFE7E5
:10030C00034C2C60D8E74FF0FF30DFE728000020CB
:10031C002C00002000B585B00023019302930393B9
:10032C001148124A026083600122027303754FF474
:10033C006021C1614360026100F06CFD68B90D235E
:10034C000193012302930023039301A9064800F0B3
:10035C00DDFB28B905B05DF804FB00F0E3F8EEE72F
:10036C0000F0E0F8F6E700BFBC01002000240140DB
:10037C0000B587B00023029303930493059302689E
:10038C00114B9A4202D007B05DF804FB03F56C43A5
:10039C009A6942F400729A619A6902F400720092AE
:1003AC00009A9A6942F010029A619B6903F010035B
:1003BC000193019B082302930323039302A903488F
:1003CC0000F0FAFEDFE700BF0024014000100140FE
:1003DC0000B583B00A4B5A6942F001025A615B695D
:1003EC0003F001030193019B002211460F2000F042
:1003FC00DBFD0F2000F0E8FD03B05DF804FB00BF4F
:10040C000010024010B588B00024049405940694A2
:10041C0007941C4B9A6942F010029A619A6902F097
:10042C0010020092009A9A6942F020029A619A692D
:10043C0002F020020192019A9A6942F004029A6138
:10044C009A6902F004020292029A9A6942F0080236
:10045C009A619B6903F008030393039B4FF40053C9
:10046C000493094B059304A9084800F0A5FE224605
:10047C002146282000F098FD282000F0A5FD08B0AA
:10048C0010BD00BF00100240000011100010014010
:10049C00401ABDF800C0ACEB030C0CFB00F0521A78
:1004AC0090FBF2F0184480B270470000014B1B68BF
:1004BC00586370474002002010B5054C4FF0FF31D7
:1004CC00204600F05DFA204600F01CFB80B210BD07
:1004DC00BC01002030B40E4C23780E4D35F813C0FF
:1004EC000D490A68A2EB0C020A6025F813001044AF
:1004FC0008605A1C094B83FB021303EB4303D31A0A
:10050C002370074BA3FB0030C0F34F0030BC704787
:10051C00F0010020F4010020EC0100205655555547
:10052C00ABAAAAAA72B6FEE700B595B028220021A4
:10053C000DEB0200FFF728FE0023059306930793AB
:10054C0008930993019302930393049301220A9253
:10055C004FF480330B930E920222119212934FF4AC
:10056C00E01313930AA800F05BFFC8B90F2305939F
:10057C0002210691002307934FF48062089209939D
:10058C0005A801F07FF968B9022301934FF40043E9
:10059C00039301A801F052FA30B915B05DF804FBD1
:1005AC00FFF7C0FFFFF7BEFFFFF7BCFF00B583B03E
:1005BC0000F0AEF9FFF7B8FFFFF724FFFFF708FFD5
:1005CC0000F0CCF800F034F9FFF7A4FE00210D4840
:1005DC0001F0B8FE0C4800F07DFBFFF76DFFFFF754
:1005EC0079FF4FF4FA6300934FF47A7340F6FF727D
:1005FC000021FFF74DFFFFF759FF0A2000F0ACF97F
:10060C00EBE700BF40020020BC01002082B00E4B83
:10061C009A6942F001029A619A6902F00102009211
:10062C00009ADA6942F08052DA61DB6903F0805398
:10063C000193019B054A536823F0E06343F0007378
:10064C00536002B0704700BF001002400000014030
:10065C00FEE7FEE7FEE7FEE7FEE7704770477047F0
:10066C0008B500F067F908BD08B5024800F002FDB6
:10067C0008BD00BFFC01002008B5024801F086FB54
:10068C0008BD00BF4002002008B54FF4005000F038
:10069C00A3FE08BD704700000368B3F1804F00D083
:1006AC00704710B582B0044603F50433DA6942F0A2
:1006BC000102DA61DB6903F001030193019B12482B
:1006CC00124B036010234360002383608022C260BE
:1006DC004FF4807202614FF4806242618361C361A6
:1006EC0000F094FC60B9084B63625C620022114616
:1006FC001C2000F059FC1C2000F066FC02B010BD60
:10070C00FFF710FFEFE700BFFC010020580002408C
:10071C0000B587B0002302930393049305930368F9
:10072C00B3F1804F02D007B05DF804FB03F504333E
:10073C009A6942F004029A619B6903F004030193E5
:10074C00019B0123029302230393059302A9024800
:10075C0000F032FDE7E700BF0008014000B58FB0A4
:10076C0000230A930B930C930D9308930993019315
:10077C000293039304930593069307932B484FF02E
:10078C008042026047224260836044F61F62C2606E
:10079C000361836101F0ECFB002831D14FF48053ED
:1007AC000A930AA9214801F03EFD60BB1F4801F0E5
:1007BC0037FC58BB1D4801F007FC50BB00230893C5
:1007CC00099308A9194801F02BFE28BB602301935B
:1007DC00002202920392059201A9144801F0A9FC8F
:1007EC00E8B90023019304220DEB02010F4801F03C
:1007FC0071FCB8B90D48FFF78BFF0FB05DF804FB27
:10080C00FFF790FECAE7FFF78DFECFE7FFF78AFEF2
:10081C00D0E7FFF787FED1E7FFF784FED6E7FFF7B7
:10082C0081FEDEE7FFF77EFEE4E700BF400200201A
:10083C0008B50A480A4B03604FF4E13343600023C8
:10084C008360C36003610C2242618361C36101F068
:10085C0069FE00B908BDFFF765FEFBE788020020C2
:10086C000044004000B587B0002302930393049327
:10087C0005930268114B9A4202D007B05DF804FB55
:10088C0003F5E633DA6942F40032DA61DA6902F42C
:10089C0000320092009A9A6942F004029A619B69B4
:1008AC0003F004030193019B0C2302930223039393
:1008BC00059302A9024800F07FFCDEE700440040EB
:1008CC000008014010B504460E4B1A784FF47A73A9
:1008DC00B3FBF2F30C4A1068B0FBF3F000F082FBB0
:1008EC0068B90F2C01D901200AE0002221464FF0F3
:1008FC00FF3000F059FB054B1C60002000E001208C
:10090C0010BD00BF040000200000002008000020E3
:10091C0008B5074A136843F010031360032000F076
:10092C0031FB0020FFF7CEFFFFF770FE002008BD63
:10093C0000200240034A1168034B1B780B441360E0
:10094C00704700BFD002002004000020014B186843
:10095C00704700BFD002002038B50446FFF7F6FF01
:10096C000546B4F1FF3F02D0044B1B781C44FFF743
:10097C00EDFF401BA042FAD338BD00BF040000209D
:10098C00F0B583B005460C4600230193FFF7DEFF5C
:10099C002B689A6812F4807F23D107465A6812F4A8
:1009AC00807F03D1DB6A13F4700F29D0504B1E6883
:1009BC00022001F0CFF8B6FBF0F62B6819694D4A0E
:1009CC00114236D1D96802F15C42114231D1196918
:1009DC00494A114240D1DA68484B1A423ED0292389
:1009EC0041E0AB6A43F02003AB62002385F824306E
:1009FC00012003B0F0BD2B681B6813F0020F0FD061
:100A0C002B681B6813F0020F4FD1B4F1FF3FF7D0E6
:100A1C00002CF0D0FFF79AFFC31BA342F0D9EAE7F2
:100A2C00AB6A43F00403AB62002385F82430032047
:100A3C00DFE71969304A114204D1D96802F16E42DC
:100A4C0011420DD019692E4A0A405AB9DA682C4B5A
:100A5C0013405BB1FC2306E0292304E0142302E0DD
:100A6C00542300E0FC2303FB06F607E05423FAE7CB
:100A7C00019BB34210D3019B01330193019BB34201
:100A8C0013D2B4F1FF3FF6D0002CF1D0FFF75EFF8C
:100A9C00C01BA042EFD9EBE7AB6A43F00403AB6297
:100AAC00002385F824300320A3E72B686FF0120293
:100ABC001A60AB6A43F40073AB622B689B6803F457
:100ACC006023B3F5602F01D0002092E7287B60B93A
:100ADC00AB6A23F48073AB62AB6A13F4805F88D18A
:100AEC00AB6A43F00103AB6283E7002081E700BFF0
:100AFC000000002024499224922449129224490097
:100B0C00499224000368D86C7047000030B482B05E
:100B1C000022019290F82420012A00F08F800346D5
:100B2C00012280F824204A68062A2DD80468606BBC
:100B3C0002EB8202053A4FF01F0C0CFA02FC20EA81
:100B4C000C000D6805FA02F2024362630A68092A76
:100B5C0038D91C68E06802EB42021E3A4FF0070CD1
:100B6C000CFA02FC20EA0C008D6805FA02F2024332
:100B7C00E2600A68103A012A34D90020002283F876
:100B8C00242002B030BC70470C2A0DD80568286BA5
:100B9C0002EB8202233A1F24944020EA04000C68E2
:100BAC00944020432863D1E70568E86A02EB82028F
:100BBC00413A1F24944020EA04000C6894402043DE
:100BCC00E862C3E71C68206902EB42024FF0070C95
:100BDC000CFA02FC20EA0C008D6805FA02F20243C2
:100BEC002261C6E71A681648824205D09A6A42F01A
:100BFC0020029A620120C1E7906810F4000F1BD10B
:100C0C00906840F4000090600A68102A01D000201F
:100C1C00B4E70C4A12680C49A1FB0212920C02EBCD
:100C2C0082025200019202E0019A013A0192019A69
:100C3C00002AF9D10020A1E700209FE70220A0E7BD
:100C4C00002401400000002083DE1B4330B583B03C
:100C5C000023019303689A6812F0010F33D1044604
:100C6C009A6842F001029A60184B1B68184AA2FB62
:100C7C0003239B0C019302E0019B013B0193019B1D
:100C8C00002BF9D1FFF762FE054623689B6813F031
:100C9C00010F16D1FFF75AFE431B022BF5D923681F
:100CAC009B6813F0010FF0D1A36A43F01003A36209
:100CBC00E36A43F00103E362002384F8243001204B
:100CCC0002E0002000E0002003B030BD0000002056
:100CDC0083DE1B4390F82430012B68D010B50446FA
:100CEC00012380F82430FFF7B1FF00285BD1A36A01
:100CFC0023F4407323F0010343F48073A36223684D
:100D0C002C4A934227D0A26A22F48012A2625A681B
:100D1C0012F4806F05D0A26A22F4405242F4805241
:100D2C00A262A26A12F4805F2BD0E26A22F0060261
:100D3C00E262002284F824206FF002021A60236819
:100D4C009A6802F46022B2F5602F1DD09A6842F4C2
:100D5C0080129A602AE0A2F58062526812F4702F19
:100D6C00D1D0A26A42F48012A262134A526812F4E1
:100D7C00806FD6D0A26A22F4405242F48052A26212
:100D8C00CFE70022E262D4E70A4A934204D09A6881
:100D9C0042F4A0029A6009E0A2F58062526812F453
:100DAC00702FD3D1F3E7002384F8243010BD022038
:100DBC00704700BF002801400024014038B503688B
:100DCC009A6812F0010F01D1002038BD04469A68D0
:100DDC0022F001029A60FFF7B9FD054623689B6873
:100DEC0013F0010F13D0FFF7B1FD431B022BF5D904
:100DFC0023689B6813F0010FF0D0A36A43F0100333
:100E0C00A362E36A43F00103E3620120DDE7002003
:100E1C00DBE7000000287BD070B50446836A002B0A
:100E2C004DD02046FFF7CAFFA36A13F0100369D117
:100E3C00002867D1A26A22F4885222F0020242F002
:100E4C000202A2626268E1690A43217B42EA410222
:100E5C00A568B5F5807F02D0012D36D01D46267DC4
:100E6C00012E35D02668716821F4694129437160DF
:100E7C002568AE68274931401143A960A168B1F5D6
:100E8C00807F01D0012902D12369013B1B05256814
:100E9C00E96A21F470010B43EB62236899681E4BDD
:100EAC000B409A4225D0A36A23F0120343F010039F
:100EBC00A362E36A43F00103E362012027E0C3620B
:100ECC0080F82430FFF754FAABE74FF48075C6E78F
:100EDC0031B9A169013945EA413141F40065C1E7F5
:100EEC00A16A41F02001A162E16A41F00101E162D5
:100EFC00B8E70023E362A36A23F0030343F0010382
:100F0C00A36204E0A36A43F01003A362012070BD46
:100F1C0001207047FDF7E1FFFE0E1FFF002808DBE4
:100F2C000901C9B200F1604000F5614080F800137E
:100F3C00704700F00F000901C9B2014B19547047FA
:100F4C0014ED00E000B500F00700C0F1070CBCF197
:100F5C00040F28BF4FF0040C031D062B0FD9C31E22
:100F6C004FF0FF3E0EFA0CF021EA000199400EFA08
:100F7C0003FE22EA0E0241EA02005DF804FB0023A4
:100F8C00EEE70000074AD36823F4E0631B041B0C54
:100F9C00000200F4E060034343F0BF6343F400330A
:100FAC00D360704700ED00E010B50446054BD868DF
:100FBC00C0F30220FFF7C6FF01462046FFF7AEFF45
:100FCC0010BD00BF00ED00E0002807DB00F01F02A1
:100FDC00400901239340024A42F82030704700BF79
:100FEC0000E100E00138B0F1807F0BD24FF0E0233C
:100FFC005861054AF02182F82310002098610722DD
:10100C001A6170470120704700ED00E050B310B436
:10101C0002460168144B0B441448A0FB03031B0944
:10102C009B001364124BD363022382F821300868AF
:10103C006FF30D10536894682343D46823431469E9
:10104C0023435469234394692343D46923430343BF
:10105C000B6000209063012382F8213082F820007D
:10106C0010BC704701207047F8FFFDBFCDCCCCCC35
:10107C000000024038B5C36B1A6804682568016C1F
:10108C0004238B40134235D015F0040F32D0236863
:10109C0013F0200F03D1236823F0040323600368AB
:1010AC00434A934214D01432934218D014329342D0
:1010BC0017D01432934217D01432934217D01432F3
:1010CC00934202D04FF0806203E04FF4800200E0C4
:1010DC000422384B5A60C36A03B1984738BD40228A
:1010EC00F7E74FF48062F4E74FF48042F1E74FF4F6
:1010FC008022EEE702238B4013423CD015F0020F06
:10110C0039D0236813F0200F06D1236823F00A038B
:10111C002360012380F821300368254A934214D0C0
:10112C00143293421CD0143293421BD0143293428B
:10113C001BD0143293421BD01432934202D04FF086
:10114C00007203E04FF4001200E00222194B5A60C7
:10115C00002380F82030836A002BBFD09847BDE76E
:10116C002022F3E74FF40072F0E74FF40052EDE762
:10117C004FF40032EAE708238B401342AED015F04F
:10118C00080FABD0236823F00E032360026CC16BF5
:10119C00012303FA02F24A60836380F821300023B2
:1011AC0080F82030036B002B98D0984796E700BF4F
:1011BC00080002400000024070B582B00024A44632
:1011CC00A1E07E4DAB4214D00CD8A5F58015AB42F6
:1011DC000FD005F57025AB420BD0A5F58015AB42B1
:1011EC0010D106E0764DAB4203D005F58035AB420D
:1011FC0008D18B68002B50D0012B49D042610824B8
:10120C0000E0CC68BEF1FF0F49D806464FEA8C02CD
:10121C0033680F25954023EA050304FA02F21343C1
:10122C0033604B6813F0805F6BD0664B9A6942F069
:10123C0001029A619B6903F001030193019B4FEA40
:10124C009C02951C604B53F825600CF00305AD0017
:10125C000F23AB4026EA03065C4B984226D003F5DD
:10126C008063984200F08C8003F58063984200F014
:10127C00898003F58063984216D0042317E0CC686C
:10128C000434BFE7CC680834BCE7CC680C34B9E74D
:10129C0002610824B6E70024B4E70424B2E7061D73
:1012AC00ACF108029200B3E7032300E00023AB404B
:1012BC0033430232444D45F822304B6813F4801FFF
:1012CC0062D0434A936843EA0E0393604B6813F46D
:1012DC00001F5FD03E4AD36843EA0E03D3604B68CD
:1012EC0013F4003F5CD03A4A536843EA0E03536050
:1012FC004B6813F4803F59D0354A136843EA0E0308
:10130C0013600CF1010C0B6833FA0CF254D001226F
:10131C0002FA0CF203EA020E32EA0303F1D14B6833
:10132C00122B3FF64EAF122B3FF66CAF01A555F8C2
:10133C0023F000BFFF1100080F12000891120008E3
:10134C00A312000811120008111200081112000853
:10135C0011120008111200081112000811120008D5
:10136C0011120008111200081112000811120008C5
:10137C0011120008111200088B12000897120008B5
:10138C00012394E7022392E7114A936823EA0E03A0
:10139C0093609BE70E4AD36823EA0E03D3609EE763
:1013AC000B4A536823EA0E035360A1E7084A1368FB
:1013BC0023EA0E031360A4E702B070BD00002210F4
:1013CC0000003110001002400000014000080140F4
:1013DC00000401407047000008B5054B5B690342EF
:1013EC0000D108BD024B5861FFF7F4FFF9E700BFCD
:1013FC000004014082B0084B1B68084AA2FB03237F
:10140C005B0A00FB03F3019300BF019B5A1E019280
:10141C00002BF9D102B0704700000020D34D6210B0
:10142C00002800F0F18170B582B00446036813F017
:10143C00010F2CD0994B5B6803F00C03042B1DD0CF
:10144C00964B5B6803F00C03082B12D06368B3F562
:10145C00803F41D0002B55D103F1804303F5043379
:10146C001A6822F480321A601A6822F480221A60F8
:10147C0037E08A4B5B6813F4803FE7D0874B1B68DF
:10148C0013F4003F03D06368002B00F0BF81236886
:10149C0013F0020F75D0814B5B6813F00C0F5FD00B
:1014AC007E4B5B6803F00C03082B54D02369002B94
:1014BC0000F08A807A4B01221A60FFF747FA054642
:1014CC00764B1B6813F0020F75D1FFF73FFA401BE8
:1014DC000228F5D903209EE1704A136843F4803347
:1014EC001360636843B3FFF731FA05466B4B1B6817
:1014FC0013F4003FCBD1FFF729FA401B6428F5D930
:10150C00032088E1B3F5A02F09D0644B1A6822F4AC
:10151C0080321A601A6822F480221A60E1E703F123
:10152C008043A3F53C331A6842F480221A601A688F
:10153C0042F480321A60D4E7FFF708FA0546574B9D
:10154C001B6813F4003FA2D0FFF700FA401B64287D
:10155C00F5D903205FE1514B5B6813F4803FA5D1B3
:10156C004E4B1B6813F0020F03D02369012B40F084
:10157C004F814A4A136823F0F803616943EAC103B7
:10158C001360236813F0080F33D0A369002B5CD0D1
:10159C00434B0122C3F88024FFF7D8F905463F4B93
:1015AC005B6A13F0020F21D1FFF7D0F9401B022820
:1015BC00F5D903202FE1394A136823F0F803616948
:1015CC0043EAC1031360DCE7354B00221A60FFF7D6
:1015DC00BDF90546314B1B6813F0020FD1D0FFF754
:1015EC00B5F9401B0228F5D9032014E10120FFF7BF
:1015FC0001FF236813F0040F00F09680274BDB6982
:10160C0013F0805F34D1254BDA6942F08052DA61F5
:10161C00DB6903F080530193019B0125214B1B686F
:10162C0013F4807F26D0E368012B3DD0002B53D1DF
:10163C0003F1804303F504331A6A22F001021A62A3
:10164C001A6A22F004021A6233E0154B0022C3F826
:10165C008024FFF77BF90546104B5B6A13F0020FF1
:10166C00C7D0FFF773F9401B0228F5D90320D2E04D
:10167C000025D3E70B4A136843F480731360FFF71C
:10168C0065F90646074B1B6813F4807FCBD1FFF737
:10169C005DF9801B6428F5D90320BCE000100240E2
:1016AC0000004242007000405F4A136A43F001039D
:1016BC001362E36833B3FFF749F906465A4B1B6ACA
:1016CC0013F0020F2FD1FFF741F9801B41F2883341
:1016DC009842F3D903209EE0052B09D0524B1A6A8D
:1016EC0022F001021A621A6A22F004021A62E0E77E
:1016FC004D4B1A6A42F004021A621A6A42F0010255
:10170C001A62D6E7FFF722F90646474B1B6A13F01D
:10171C00020F08D0FFF71AF9801B41F28833984268
:10172C00F3D9032077E0E5B9E369002B72D03E4A88
:10173C00526802F00C02082A56D0022B17D03B4BF1
:10174C0000221A66FFF702F90446374B1B6813F0A8
:10175C00007F47D0FFF7FAF8001B0228F5D90320C9
:10176C0059E0314AD36923F08053D361DCE72F4B26
:10177C0000221A66FFF7EAF805462B4B1B6813F09C
:10178C00007F06D0FFF7E2F8401B0228F5D90320B2
:10179C0041E0236AB3F5803F1AD023494B6823F408
:1017AC007413226A606A024313434B601F4B01227D
:1017BC001A66FFF7CBF804461B4B1B6813F0007F2F
:1017CC000ED1FFF7C3F8001B0228F5D9032022E045
:1017DC00154A536823F40033A1680B435360DCE7CC
:1017EC00002018E0002016E0012B16D00E4B5B6891
:1017FC0003F48031226A914211D103F47013626AAE
:10180C0093420ED1002006E001207047012002E037
:10181C00012000E0002002B070BD0120FBE7012098
:10182C00F9E70120F7E700BF001002400000424238
:10183C000F4B5B6803F00C02082A01D00D4870476F
:10184C00C3F383420C49885C13F4803F0BD0084BE4
:10185C005B68C3F34043094AD35C064A02FB00F0C1
:10186C00B0FBF3F07047064B03FB00F0704700BF72
:10187C000010024000127A002426000820260008DE
:10188C0000093D00002800F0A08070B50D4604460C
:10189C00524B1B6803F007038B420BD24F4A136861
:1018AC0023F007030B431360136803F007038B4209
:1018BC0040F08D80236813F0020F17D013F0040F43
:1018CC0004D0474A536843F4E0635360236813F031
:1018DC00080F04D0424A536843F460535360404AA3
:1018EC00536823F0F003A1680B435360236813F093
:1018FC00010F31D06368012B20D0022B25D0384A40
:10190C00126812F0020F64D035494A6822F00302C3
:10191C0013434B60FFF71AF80646314B5B6803F034
:10192C000C036268B3EB820F16D0FFF70FF8801B25
:10193C0041F288339842F0D9032045E0284A1268D6
:10194C0012F4003FE0D101203EE0254A126812F06B
:10195C00007FD9D1012037E0204B1B6803F007032F
:10196C00AB420AD91D4A136823F007032B431360BB
:10197C00136803F00703AB422DD1236813F0040F57
:10198C0006D0174A536823F4E063E1680B435360B5
:10199C00236813F0080F07D0114A536823F46053DF
:1019AC00216943EAC1035360FFF742FF0C4B5B68AC
:1019BC00C3F303130B4AD35CD8400B4B18600B4B8F
:1019CC001868FEF77FFF002070BD012070470120D2
:1019DC00FAE70120F8E70120F6E700BF00200240FB
:1019EC000010024010260008000000200800002013
:1019FC00014B1868704700BF0000002008B5FFF7C6
:101A0C00F7FF044B5B68C3F30223034AD35CD84053
:101A1C0008BD00BF001002400826000808B5FFF7FB
:101A2C00E7FF044B5B68C3F3C223034AD35CD84083
:101A3C0008BD00BF001002400826000870B582B037
:101A4C000446036813F0010F36D03F4BDB6913F0EB
:101A5C00805F49D13C4BDA6942F08052DA61DB6934
:101A6C0003F080530193019B0125384B1B6813F441
:101A7C00807F3BD0344B1B6A13F4407313D06268E5
:101A8C0002F440729A420ED02F4A136A23F440702B
:101A9C002F490126C1F840640026C1F84064106249
:101AAC0013F0010F36D1284A136A23F4407361688E
:101ABC000B431362002D3ED1236813F0020F06D0A6
:101ACC00214A536823F44043A1680B4353602368B5
:101ADC0013F0100F34D01C4A536823F48003E168D0
:101AEC000B43536000202CE00025BEE7174A136817
:101AFC0043F480731360FEF729FF0646134B1B68F3
:101B0C0013F4807FB6D1FEF721FF801B6428F5D932
:101B1C00032016E0FEF71AFF06460B4B1B6A13F068
:101B2C00020FC0D1FEF712FF801B41F2883398429E
:101B3C00F3D9032005E0D36923F08053D361BBE7CD
:101B4C00002002B070BD00BF0010024000700040C9
:101B5C000000424208B502284ED0102803D00128BC
:101B6C0028D0002052E02B4B5A68186810F0807077
:101B7C004CD0C2F383432849C85C12F4803F15D083
:101B8C00244B5B68C3F34043244AD25C244BB3FB25
:101B9C00F2F303FB00F01F4B5B6813F4800F35D19D
:101BAC004000204BA3FB003040082FE01E4B03FBF2
:101BBC0000F0F0E7174B1B6A40F202321A40B2F504
:101BCC00817F24D003F44073B3F5007F04D0B3F5C8
:101BDC00407F09D0002019E00E4A526A12F0020F21
:101BEC00F5D049F6404011E00A4B186810F400306B
:101BFC000CD04FF2244009E0FFF710FF054B5B6857
:101C0C00C3F3813301335B00B0FBF3F008BD4FF439
:101C1C000040FBE70010024038260008342600087C
:101C2C0000127A00ABAAAAAA00093D0030B4026ADD
:101C3C00036A23F0010303624568836923F073038D
:101C4C000C681C4322F002028B6813430B4A90422F
:101C5C0006D0456084614A684263036230BC7047B9
:101C6C0023F00803CA681A4322F0040325F44075D4
:101C7C004A692A438D691543EBE700BF002C0140EC
:101C8C0030B4036A026A22F4807202624468C26948
:101C9C0022F073020D68154323F400738A6843EA3B
:101CAC0002230D4A904206D04460C5614A68C26363
:101CBC00036230BC704723F40063CA6843EA022312
:101CCC0023F4806324F440544A6944EA02148A6978
:101CDC0044EA0214E8E700BF002C014030B4036A68
:101CEC00026A22F4805202624468C26922F4E6421B
:101CFC000D6842EA052223F400538D6843EA05334C
:101D0C00074DA84206D04460C2614A68026403626F
:101D1C0030BC704724F480444D6944EA8514F2E7E2
:101D2C00002C014010B4036A046A24F0010404621C
:101D3C00846924F0F00C4CEA021223F00A030B43E2
:101D4C008261036210BC704710B4036A046A24F009
:101D5C0010040462846924F4704C4CEA023223F0BF
:101D6C00A00343EA01138261036210BC70478368CD
:101D7C0023F070030B4343F00703836070477047F5
:101D8C0070477047704770477047704770B504468E
:101D9C000368DE681D6915F0020F10D016F0020FF3
:101DAC000DD06FF002021A610123037703689B695F
:101DBC0013F0030F5ED0FFF7E6FF0023237715F037
:101DCC00040F12D016F0040F0FD023686FF004022A
:101DDC001A610223237723689B6913F4407F4FD049
:101DEC002046FFF7D0FF0023237715F0080F12D001
:101DFC0016F0080F0FD023686FF008021A61042345
:101E0C0023772368DB6913F0030F40D02046FFF7DC
:101E1C00BAFF0023237715F0100F12D016F0100F15
:101E2C000FD023686FF010021A6108232377236800
:101E3C00DB6913F4407F31D02046FFF7A4FF002369
:101E4C00237715F0010F02D016F0010F2DD115F0EC
:101E5C00800F02D016F0800F2FD115F0400F02D05A
:101E6C0016F0400F31D115F0200F02D016F0200FD4
:101E7C0033D170BDFFF786FF2046FFF785FF9CE747
:101E8C002046FFF77FFF2046FFF77EFFABE720469B
:101E9C00FFF778FF2046FFF777FFBAE72046FFF7FA
:101EAC0071FF2046FFF770FFC9E723686FF001024E
:101EBC001A612046FFF765FFC9E723686FF08002BF
:101ECC001A61204600F0E3FAC7E723686FF040027E
:101EDC001A612046FFF759FFC5E723686FF020020F
:101EEC001A61204600F0D2FAC3E7000003681F4ACB
:101EFC0090420AD0B0F1804F07D0A2F594329042B4
:101F0C0003D002F58062904203D123F070034A683B
:101F1C001343164A90420AD0B0F1804F07D0A2F575
:101F2C009432904203D002F58062904203D123F4A4
:101F3C004073CA68134323F080034A691343036058
:101F4C008B68C3620B688362084B98420AD00123EA
:101F5C004361036913F0010F03D0036923F00103FC
:101F6C00036170470B690363F1E700BF002C01406C
:101F7C0040B310B5044690F83D30F3B1022384F819
:101F8C003D30214651F8040BFFF7B0FF012384F8D4
:101F9C00463084F83E3084F83F3084F8403084F882
:101FAC00413084F8423084F8433084F8443084F86B
:101FBC00453084F83D30002010BD80F83C30FEF7F1
:101FCC006BFBDBE70120704740B310B5044690F87B
:101FDC003D30F3B1022384F83D30214651F8040B17
:101FEC00FFF784FF012384F8463084F83E3084F8F0
:101FFC003F3084F8403084F8413084F8423084F823
:10200C00433084F8443084F8453084F83D30002067
:10201C0010BD80F83C30FFF7B2FEDBE701207047C3
:10202C0040B310B5044690F83D30F3B1022384F868
:10203C003D30214651F8040BFFF758FF012384F87B
:10204C00463084F83E3084F83F3084F8403084F8D1
:10205C00413084F8423084F8433084F8443084F8BA
:10206C00453084F83D30002010BD80F83C30FFF73F
:10207C0087FEDBE70120704730B4036A026A22F066
:10208C00100202624468826922F4E6420D6842EA58
:10209C00052223F020038D6843EA05130C4DA8425A
:1020AC0006D0446082614A688263036230BC704728
:1020BC0023F08003CD6843EA051323F0400324F496
:1020CC0040644D6944EA85048D6944EA8504E8E777
:1020DC00002C014090F83C30012B28D010B5044660
:1020EC00012380F83C300C2A1CD8DFE802F0071BD7
:1020FC001B1B0C1B1B1B111B1B1B16000068FFF76B
:10210C0095FD00200FE00068FFF7B6FF00200AE005
:10211C000068FFF7B5FD002005E00068FFF7DEFD65
:10212C00002000E00120002384F83C3010BD022088
:10213C00704738B590F83C30012B66D004460D46FC
:10214C00012380F83C300C2A5AD8DFE802F00759FA
:10215C0059591B5959593059595944000068FFF7BE
:10216C0065FD2268936943F00803936122689369C3
:10217C0023F0040393612268936929690B439361EB
:10218C0000203EE00068FFF777FF2268936943F474
:10219C00006393612268936923F4806393612268DE
:1021AC009369296943EA01239361002029E00068BF
:1021BC00FFF766FD2268D36943F00803D3612268F8
:1021CC00D36923F00403D3612268D36929690B43D3
:1021DC00D361002015E00068FFF780FD2268D36909
:1021EC0043F40063D3612268D36923F48063D36121
:1021FC002268D369296943EA0123D361002000E0F6
:10220C000120002384F83C3038BD0220FCE710B4D8
:10221C00846824F47F4C42EA03220A4342EA0C020B
:10222C00826010BC704790F83C30012B78D010B510
:10223C000446012380F83C30022380F83D300268CC
:10224C00936823F47F4323F0770393600B68602B30
:10225C004CD023D8402B54D011D8202B03D00AD8E3
:10226C000BB1102B05D119462068FFF780FD00201B
:10227C0028E0012026E0302BF5D0012022E0502B65
:10228C000AD1CA6849680068FFF74CFD50212068E4
:10229C00FFF76DFD002015E0012013E0B3F5805F22
:1022AC003AD0B3F5005F14D0702B37D1CB684A68A5
:1022BC0089680068FFF7ABFF2268936843F07703E7
:1022CC0093600020012384F83D30002384F83C30D7
:1022DC0010BDCB684A6889680068FFF798FF2268D0
:1022EC00936843F4804393600020EBE7CA68496825
:1022FC000068FFF729FD60212068FFF738FD0020FA
:10230C00E0E7CA6849680068FFF70CFD40212068C7
:10231C00FFF72DFD0020D5E70020D3E70120D1E702
:10232C000220704701F01F014FF0010C0CFA01FC68
:10233C00036A23EA0C030362036A8A4013430362B1
:10234C007047000010B50446084651BB94F83E3067
:10235C00DBB2013B18BF0123002B5BD1002839D124
:10236C00022384F83E30012201462068FFF7DAFF91
:10237C0023682A4A93423DD02368284A93423ED090
:10238C00B3F1804F3BD0A2F59432934237D002F593
:10239C008062934233D01A6842F001021A60002026
:1023AC0039E0042908D008290DD094F84130DBB26B
:1023BC00013B18BF0123CFE794F83F30DBB2013B60
:1023CC0018BF0123C8E794F84030DBB2013B18BFBB
:1023DC000123C1E7042805D0082807D0022384F87C
:1023EC004130C0E7022384F83F30BCE7022384F875
:1023FC004030B8E75A6C42F400425A64BCE79A6821
:10240C0002F00702062A07D01A6842F001021A608D
:10241C00002000E0012010BD0020FCE7002C014052
:10242C0090F83C20012A2CD010B40346012280F8ED
:10243C003C20022280F83D2002685068946820F00D
:10244C00700C086840EA0C0050601A680E48824212
:10245C000AD0B2F1804F07D0A0F59430824203D05D
:10246C0000F58060824204D124F080044968214345
:10247C009160012283F83D20002083F83C0010BCC1
:10248C0070470220704700BF002C01407047704716
:10249C0010B504460268136923F44053C1680B431A
:1024AC00136183680269134342691A430168CB685C
:1024BC0023F4B05323F00C031343CB60026853692D
:1024CC0023F4407381690B4353610268134B9A42A6
:1024DC0020D0FFF793FA024602EB820202EB820253
:1024EC0063689B00B2FBF3F20D48A0FB0231490973
:1024FC00642303FB11231B013233A0FB03035B0991
:10250C0003F0F00202EB011203F00F0321681344F5
:10251C008B6010BDFFF782FA0246DDE70038014000
:10252C001F85EB5160B310B5044690F8413013B3DE
:10253C00242384F841302268D36823F40053D360F9
:10254C002046FFF7A5FF2268136923F4904313611B
:10255C002268536923F02A0353612268D36843F439
:10256C000053D36000206064202384F8413084F849
:10257C004230606310BD80F84030FEF773F9D7E746
:10258C0001207047FEF786F80B480C490C4A0023D3
:10259C0002E0D458C4500433C4188C42F9D3094A0D
:1025AC00094C002301E013600432A242FBD3FDF777
:1025BC003DFEFDF7FBFF7047000000200C000020E3
:1025CC00542600080C000020D4020020FEE7000076
:1025DC00024B13B10248FDF751BE704700000000DA
:1025EC0095020008F8B500BFF8BC08BC9E467047C1
:0C25FC00F8B500BFF8BC08BC9E46704754
:1026080000000000010203040000000000000000B8
:102618000102030406070809010200000203040579
:10262800060708090A0B0C0D0E0F10100102000016
:1026380002030405060708090A0B0C0D0E0F1010FB
:08264800DD2500087501000802
:042650004D01000830
:0C26540000127A000100000010000000DD
:040000050800259139
:00000001FF
